{
  "_format": "hh-sol-artifact-1",
  "contractName": "RRO",
  "sourceName": "contracts/RRO.sol",
  "abi": [
    {
      "inputs": [
        {
          "internalType": "address",
          "name": "backend",
          "type": "address"
        }
      ],
      "stateMutability": "nonpayable",
      "type": "constructor"
    },
    {
      "anonymous": false,
      "inputs": [
        {
          "indexed": false,
          "internalType": "string",
          "name": "name",
          "type": "string"
        },
        {
          "indexed": false,
          "internalType": "uint8",
          "name": "baseRiskScore",
          "type": "uint8"
        }
      ],
      "name": "AVSRegistered",
      "type": "event"
    },
    {
      "anonymous": false,
      "inputs": [
        {
          "indexed": false,
          "internalType": "address",
          "name": "user",
          "type": "address"
        }
      ],
      "name": "RebalanceTriggered",
      "type": "event"
    },
    {
      "anonymous": false,
      "inputs": [
        {
          "indexed": false,
          "internalType": "address",
          "name": "user",
          "type": "address"
        },
        {
          "indexed": false,
          "internalType": "string",
          "name": "fromAVS",
          "type": "string"
        },
        {
          "indexed": false,
          "internalType": "string",
          "name": "toAVS",
          "type": "string"
        },
        {
          "indexed": false,
          "internalType": "uint256",
          "name": "amount",
          "type": "uint256"
        }
      ],
      "name": "Rebalanced",
      "type": "event"
    },
    {
      "anonymous": false,
      "inputs": [
        {
          "indexed": false,
          "internalType": "string",
          "name": "avsName",
          "type": "string"
        },
        {
          "indexed": false,
          "internalType": "uint8",
          "name": "newRiskScore",
          "type": "uint8"
        }
      ],
      "name": "RiskScoreUpdated",
      "type": "event"
    },
    {
      "anonymous": false,
      "inputs": [
        {
          "indexed": false,
          "internalType": "address",
          "name": "user",
          "type": "address"
        },
        {
          "indexed": false,
          "internalType": "uint8",
          "name": "maxRiskScore",
          "type": "uint8"
        }
      ],
      "name": "UserPrefsUpdated",
      "type": "event"
    },
    {
      "inputs": [
        {
          "internalType": "uint256",
          "name": "",
          "type": "uint256"
        }
      ],
      "name": "avsList",
      "outputs": [
        {
          "internalType": "string",
          "name": "",
          "type": "string"
        }
      ],
      "stateMutability": "view",
      "type": "function"
    },
    {
      "inputs": [
        {
          "internalType": "string",
          "name": "",
          "type": "string"
        }
      ],
      "name": "avsRegistry",
      "outputs": [
        {
          "internalType": "string",
          "name": "name",
          "type": "string"
        },
        {
          "internalType": "uint8",
          "name": "baseRiskScore",
          "type": "uint8"
        },
        {
          "internalType": "bool",
          "name": "exists",
          "type": "bool"
        }
      ],
      "stateMutability": "view",
      "type": "function"
    },
    {
      "inputs": [
        {
          "internalType": "string",
          "name": "name",
          "type": "string"
        },
        {
          "internalType": "uint256",
          "name": "amount",
          "type": "uint256"
        }
      ],
      "name": "depositToAVS",
      "outputs": [],
      "stateMutability": "nonpayable",
      "type": "function"
    },
    {
      "inputs": [
        {
          "internalType": "string",
          "name": "name",
          "type": "string"
        }
      ],
      "name": "getAVSDetails",
      "outputs": [
        {
          "internalType": "string",
          "name": "avsName",
          "type": "string"
        },
        {
          "internalType": "uint8",
          "name": "baseRiskScore",
          "type": "uint8"
        },
        {
          "internalType": "bool",
          "name": "exists",
          "type": "bool"
        }
      ],
      "stateMutability": "view",
      "type": "function"
    },
    {
      "inputs": [],
      "name": "getAllAVSs",
      "outputs": [
        {
          "internalType": "string[]",
          "name": "",
          "type": "string[]"
        }
      ],
      "stateMutability": "view",
      "type": "function"
    },
    {
      "inputs": [
        {
          "internalType": "string",
          "name": "name",
          "type": "string"
        }
      ],
      "name": "getRiskScore",
      "outputs": [
        {
          "internalType": "uint8",
          "name": "",
          "type": "uint8"
        }
      ],
      "stateMutability": "view",
      "type": "function"
    },
    {
      "inputs": [
        {
          "internalType": "address",
          "name": "user",
          "type": "address"
        },
        {
          "internalType": "string",
          "name": "name",
          "type": "string"
        }
      ],
      "name": "getUserBalance",
      "outputs": [
        {
          "internalType": "uint256",
          "name": "",
          "type": "uint256"
        }
      ],
      "stateMutability": "view",
      "type": "function"
    },
    {
      "inputs": [
        {
          "internalType": "address",
          "name": "user",
          "type": "address"
        }
      ],
      "name": "getUserPreferences",
      "outputs": [
        {
          "internalType": "uint8",
          "name": "maxRiskScore",
          "type": "uint8"
        },
        {
          "internalType": "bool",
          "name": "autoRebalance",
          "type": "bool"
        }
      ],
      "stateMutability": "view",
      "type": "function"
    },
    {
      "inputs": [],
      "name": "owner",
      "outputs": [
        {
          "internalType": "address",
          "name": "",
          "type": "address"
        }
      ],
      "stateMutability": "view",
      "type": "function"
    },
    {
      "inputs": [],
      "name": "rebalance",
      "outputs": [],
      "stateMutability": "nonpayable",
      "type": "function"
    },
    {
      "inputs": [
        {
          "internalType": "string",
          "name": "name",
          "type": "string"
        },
        {
          "internalType": "uint8",
          "name": "baseRiskScore",
          "type": "uint8"
        }
      ],
      "name": "registerAVS",
      "outputs": [],
      "stateMutability": "nonpayable",
      "type": "function"
    },
    {
      "inputs": [
        {
          "internalType": "address",
          "name": "backend",
          "type": "address"
        }
      ],
      "name": "setTrustedBackend",
      "outputs": [],
      "stateMutability": "nonpayable",
      "type": "function"
    },
    {
      "inputs": [
        {
          "internalType": "uint8",
          "name": "maxRiskScore",
          "type": "uint8"
        }
      ],
      "name": "setUserPreferences",
      "outputs": [],
      "stateMutability": "nonpayable",
      "type": "function"
    },
    {
      "inputs": [
        {
          "internalType": "address",
          "name": "user",
          "type": "address"
        }
      ],
      "name": "triggerRebalance",
      "outputs": [],
      "stateMutability": "nonpayable",
      "type": "function"
    },
    {
      "inputs": [],
      "name": "trustedBackend",
      "outputs": [
        {
          "internalType": "address",
          "name": "",
          "type": "address"
        }
      ],
      "stateMutability": "view",
      "type": "function"
    },
    {
      "inputs": [
        {
          "internalType": "string",
          "name": "name",
          "type": "string"
        },
        {
          "internalType": "uint8",
          "name": "newRiskScore",
          "type": "uint8"
        }
      ],
      "name": "updateRiskScore",
      "outputs": [],
      "stateMutability": "nonpayable",
      "type": "function"
    },
    {
      "inputs": [
        {
          "internalType": "string",
          "name": "name",
          "type": "string"
        },
        {
          "internalType": "uint8",
          "name": "newRiskScore",
          "type": "uint8"
        }
      ],
      "name": "updateRiskScoreFromOracle",
      "outputs": [],
      "stateMutability": "nonpayable",
      "type": "function"
    },
    {
      "inputs": [
        {
          "internalType": "address",
          "name": "",
          "type": "address"
        },
        {
          "internalType": "string",
          "name": "",
          "type": "string"
        }
      ],
      "name": "userBalances",
      "outputs": [
        {
          "internalType": "uint256",
          "name": "",
          "type": "uint256"
        }
      ],
      "stateMutability": "view",
      "type": "function"
    },
    {
      "inputs": [
        {
          "internalType": "address",
          "name": "",
          "type": "address"
        }
      ],
      "name": "userPreferences",
      "outputs": [
        {
          "internalType": "uint8",
          "name": "maxRiskScore",
          "type": "uint8"
        },
        {
          "internalType": "bool",
          "name": "autoRebalance",
          "type": "bool"
        }
      ],
      "stateMutability": "view",
      "type": "function"
    }
  ],
  "bytecode": "0x608060405234801561001057600080fd5b50604051612f35380380612f358339818101604052810190610032919061011c565b336000806101000a81548173ffffffffffffffffffffffffffffffffffffffff021916908373ffffffffffffffffffffffffffffffffffffffff16021790555080600160006101000a81548173ffffffffffffffffffffffffffffffffffffffff021916908373ffffffffffffffffffffffffffffffffffffffff16021790555050610149565b600080fd5b600073ffffffffffffffffffffffffffffffffffffffff82169050919050565b60006100e9826100be565b9050919050565b6100f9816100de565b811461010457600080fd5b50565b600081519050610116816100f0565b92915050565b600060208284031215610132576101316100b9565b5b600061014084828501610107565b91505092915050565b612ddd806101586000396000f3fe608060405234801561001057600080fd5b50600436106101215760003560e01c80637d7c2a1c116100ad578063d17f5f3f11610071578063d17f5f3f1461031e578063db9004421461033a578063dc8f53b214610356578063e4beb87f14610386578063e8827cec146103a457610121565b80637d7c2a1c146102a25780638da5cb5b146102ac578063b1bb31c7146102ca578063bfb451e5146102e6578063c2db356b1461030257610121565b80633865c795116100f45780633865c795146101d55780633e314401146102055780635b649ac4146102235780636793bcbf1461023f57806379892ab51461027057610121565b8063033d62b11461012657806312bd4d74146101585780632f3d0fb41461018857806335b12333146101a4575b600080fd5b610140600480360381019061013b9190611f34565b6103d4565b60405161014f93929190612033565b60405180910390f35b610172600480360381019061016d91906120cf565b6104b6565b60405161017f9190612144565b60405180910390f35b6101a2600480360381019061019d919061218b565b6104f1565b005b6101be60048036038101906101b991906121e7565b6107c9565b6040516101cc929190612214565b60405180910390f35b6101ef60048036038101906101ea9190612269565b610866565b6040516101fc9190612296565b60405180910390f35b61020d610912565b60405161021a91906123c4565b60405180910390f35b61023d600480360381019061023891906123e6565b6109eb565b005b610259600480360381019061025491906121e7565b610acf565b604051610267929190612214565b60405180910390f35b61028a60048036038101906102859190611f34565b610b0d565b60405161029993929190612033565b60405180910390f35b6102aa610c94565b005b6102b461114b565b6040516102c19190612451565b60405180910390f35b6102e460048036038101906102df919061218b565b61116f565b005b61030060048036038101906102fb919061246c565b611329565b005b61031c600480360381019061031791906121e7565b611490565b005b610338600480360381019061033391906121e7565b611a1c565b005b610354600480360381019061034f919061218b565b611aee565b005b610370600480360381019061036b9190611f34565b611ca8565b60405161037d9190612499565b60405180910390f35b61038e611d4e565b60405161039b9190612451565b60405180910390f35b6103be60048036038101906103b991906120cf565b611d74565b6040516103cb9190612144565b60405180910390f35b60048180516020810182018051848252602083016020850120818352809550505050505060009150905080600001805461040d906124e3565b80601f0160208091040260200160405190810160405280929190818152602001828054610439906124e3565b80156104865780601f1061045b57610100808354040283529160200191610486565b820191906000526020600020905b81548152906001019060200180831161046957829003601f168201915b5050505050908060010160009054906101000a900460ff16908060010160019054906101000a900460ff16905083565b600360205281600052604060002081805160208101820180518482526020830160208501208183528095505050505050600091509150505481565b60008054906101000a900473ffffffffffffffffffffffffffffffffffffffff1673ffffffffffffffffffffffffffffffffffffffff163373ffffffffffffffffffffffffffffffffffffffff161461057f576040517f08c379a000000000000000000000000000000000000000000000000000000000815260040161057690612560565b60405180910390fd5b60008251116105c3576040517f08c379a00000000000000000000000000000000000000000000000000000000081526004016105ba906125cc565b60405180910390fd5b602082511115610608576040517f08c379a00000000000000000000000000000000000000000000000000000000081526004016105ff90612638565b60405180910390fd5b6004826040516106189190612694565b908152602001604051809103902060010160019054906101000a900460ff1615610677576040517f08c379a000000000000000000000000000000000000000000000000000000000815260040161066e906126f7565b60405180910390fd5b60648160ff1611156106be576040517f08c379a00000000000000000000000000000000000000000000000000000000081526004016106b590612763565b60405180910390fd5b60405180606001604052808381526020018260ff168152602001600115158152506004836040516106ef9190612694565b90815260200160405180910390206000820151816000019081610712919061292f565b5060208201518160010160006101000a81548160ff021916908360ff16021790555060408201518160010160016101000a81548160ff02191690831515021790555090505060058290806001815401808255809150506001900390600052602060002001600090919091909150908161078b919061292f565b507f49f7841fcfb54c8cd7137babf77e556add6837866c329ce3f241664a847f244f82826040516107bd929190612a01565b60405180910390a15050565b6000806000600260008573ffffffffffffffffffffffffffffffffffffffff1673ffffffffffffffffffffffffffffffffffffffff1681526020019081526020016000206040518060400160405290816000820160009054906101000a900460ff1660ff1660ff1681526020016000820160019054906101000a900460ff1615151515815250509050806000015181602001519250925050915091565b6005818154811061087657600080fd5b906000526020600020016000915090508054610891906124e3565b80601f01602080910402602001604051908101604052809291908181526020018280546108bd906124e3565b801561090a5780601f106108df5761010080835404028352916020019161090a565b820191906000526020600020905b8154815290600101906020018083116108ed57829003601f168201915b505050505081565b60606005805480602002602001604051908101604052809291908181526020016000905b828210156109e2578382906000526020600020018054610955906124e3565b80601f0160208091040260200160405190810160405280929190818152602001828054610981906124e3565b80156109ce5780601f106109a3576101008083540402835291602001916109ce565b820191906000526020600020905b8154815290600101906020018083116109b157829003601f168201915b505050505081526020019060010190610936565b50505050905090565b6004826040516109fb9190612694565b908152602001604051809103902060010160019054906101000a900460ff16610a59576040517f08c379a0000000000000000000000000000000000000000000000000000000008152600401610a5090612a7d565b60405180910390fd5b80600360003373ffffffffffffffffffffffffffffffffffffffff1673ffffffffffffffffffffffffffffffffffffffff16815260200190815260200160002083604051610aa79190612694565b90815260200160405180910390206000828254610ac49190612acc565b925050819055505050565b60026020528060005260406000206000915090508060000160009054906101000a900460ff16908060000160019054906101000a900460ff16905082565b6060600080600484604051610b229190612694565b908152602001604051809103902060010160019054906101000a900460ff16610b80576040517f08c379a0000000000000000000000000000000000000000000000000000000008152600401610b7790612a7d565b60405180910390fd5b6000600485604051610b929190612694565b9081526020016040518091039020604051806060016040529081600082018054610bbb906124e3565b80601f0160208091040260200160405190810160405280929190818152602001828054610be7906124e3565b8015610c345780601f10610c0957610100808354040283529160200191610c34565b820191906000526020600020905b815481529060010190602001808311610c1757829003601f168201915b505050505081526020016001820160009054906101000a900460ff1660ff1660ff1681526020016001820160019054906101000a900460ff1615151515815250509050806000015181602001518260400151935093509350509193909250565b6000600260003373ffffffffffffffffffffffffffffffffffffffff1673ffffffffffffffffffffffffffffffffffffffff1681526020019081526020016000206040518060400160405290816000820160009054906101000a900460ff1660ff1660ff1681526020016000820160019054906101000a900460ff161515151581525050905060005b60058054905081101561111057600060058281548110610d4057610d3f612b00565b5b906000526020600020018054610d55906124e3565b80601f0160208091040260200160405190810160405280929190818152602001828054610d81906124e3565b8015610dce5780601f10610da357610100808354040283529160200191610dce565b820191906000526020600020905b815481529060010190602001808311610db157829003601f168201915b505050505090506000600482604051610de79190612694565b908152602001604051809103902060010160009054906101000a900460ff1690506000600360003373ffffffffffffffffffffffffffffffffffffffff1673ffffffffffffffffffffffffffffffffffffffff16815260200190815260200160002083604051610e579190612694565b908152602001604051809103902054118015610e7c5750836000015160ff168160ff16115b156111015760005b6005805490508110156110ff57600060058281548110610ea757610ea6612b00565b5b906000526020600020018054610ebc906124e3565b80601f0160208091040260200160405190810160405280929190818152602001828054610ee8906124e3565b8015610f355780601f10610f0a57610100808354040283529160200191610f35565b820191906000526020600020905b815481529060010190602001808311610f1857829003601f168201915b50505050509050856000015160ff16600482604051610f549190612694565b908152602001604051809103902060010160009054906101000a900460ff1660ff16116110f1576000600360003373ffffffffffffffffffffffffffffffffffffffff1673ffffffffffffffffffffffffffffffffffffffff16815260200190815260200160002085604051610fca9190612694565b90815260200160405180910390205490506000600360003373ffffffffffffffffffffffffffffffffffffffff1673ffffffffffffffffffffffffffffffffffffffff1681526020019081526020016000208660405161102a9190612694565b90815260200160405180910390208190555080600360003373ffffffffffffffffffffffffffffffffffffffff1673ffffffffffffffffffffffffffffffffffffffff1681526020019081526020016000208360405161108a9190612694565b908152602001604051809103902060008282546110a79190612acc565b925050819055507ec408ab61b1ae1879efdb4157de3c68e0858ca360cb9b4c0ceb7e77a2e7dfe2338684846040516110e29493929190612b2f565b60405180910390a150506110ff565b508080600101915050610e84565b505b50508080600101915050610d1d565b507f6cbeee6bb521effeae484c1c84f2080aa2c500bd818d5f9864dca513ff6c3577336040516111409190612451565b60405180910390a150565b60008054906101000a900473ffffffffffffffffffffffffffffffffffffffff1681565b60008054906101000a900473ffffffffffffffffffffffffffffffffffffffff1673ffffffffffffffffffffffffffffffffffffffff163373ffffffffffffffffffffffffffffffffffffffff16146111fd576040517f08c379a00000000000000000000000000000000000000000000000000000000081526004016111f490612560565b60405180910390fd5b60048260405161120d9190612694565b908152602001604051809103902060010160019054906101000a900460ff1661126b576040517f08c379a000000000000000000000000000000000000000000000000000000000815260040161126290612a7d565b60405180910390fd5b60648160ff1611156112b2576040517f08c379a00000000000000000000000000000000000000000000000000000000081526004016112a990612bce565b60405180910390fd5b806004836040516112c39190612694565b908152602001604051809103902060010160006101000a81548160ff021916908360ff1602179055507f6fa7b4638d13e180643c2cc53cf09c95a9fde87bb1cf49e420bcb5addebbb156828260405161131d929190612a01565b60405180910390a15050565b60648160ff161115611370576040517f08c379a000000000000000000000000000000000000000000000000000000000815260040161136790612c3a565b60405180910390fd5b60008160ff16116113b6576040517f08c379a00000000000000000000000000000000000000000000000000000000081526004016113ad90612ccc565b60405180910390fd5b60405180604001604052808260ff16815260200160011515815250600260003373ffffffffffffffffffffffffffffffffffffffff1673ffffffffffffffffffffffffffffffffffffffff16815260200190815260200160002060008201518160000160006101000a81548160ff021916908360ff16021790555060208201518160000160016101000a81548160ff0219169083151502179055509050507f24f9124c55fc571e16013f069a621bc32b51108a826e83f7dccf4d380a2359f63382604051611485929190612cec565b60405180910390a150565b600160009054906101000a900473ffffffffffffffffffffffffffffffffffffffff1673ffffffffffffffffffffffffffffffffffffffff163373ffffffffffffffffffffffffffffffffffffffff1614611520576040517f08c379a000000000000000000000000000000000000000000000000000000000815260040161151790612560565b60405180910390fd5b6000600260008373ffffffffffffffffffffffffffffffffffffffff1673ffffffffffffffffffffffffffffffffffffffff1681526020019081526020016000206040518060400160405290816000820160009054906101000a900460ff1660ff1660ff1681526020016000820160019054906101000a900460ff161515151581525050905080602001516115ea576040517f08c379a00000000000000000000000000000000000000000000000000000000081526004016115e190612d87565b60405180910390fd5b60005b6005805490508110156119e0576000600582815481106116105761160f612b00565b5b906000526020600020018054611625906124e3565b80601f0160208091040260200160405190810160405280929190818152602001828054611651906124e3565b801561169e5780601f106116735761010080835404028352916020019161169e565b820191906000526020600020905b81548152906001019060200180831161168157829003601f168201915b5050505050905060006004826040516116b79190612694565b908152602001604051809103902060010160009054906101000a900460ff1690506000600360008773ffffffffffffffffffffffffffffffffffffffff1673ffffffffffffffffffffffffffffffffffffffff168152602001908152602001600020836040516117279190612694565b90815260200160405180910390205411801561174c5750836000015160ff168160ff16115b156119d15760005b6005805490508110156119cf5760006005828154811061177757611776612b00565b5b90600052602060002001805461178c906124e3565b80601f01602080910402602001604051908101604052809291908181526020018280546117b8906124e3565b80156118055780601f106117da57610100808354040283529160200191611805565b820191906000526020600020905b8154815290600101906020018083116117e857829003601f168201915b50505050509050856000015160ff166004826040516118249190612694565b908152602001604051809103902060010160009054906101000a900460ff1660ff16116119c1576000600360008973ffffffffffffffffffffffffffffffffffffffff1673ffffffffffffffffffffffffffffffffffffffff1681526020019081526020016000208560405161189a9190612694565b90815260200160405180910390205490506000600360008a73ffffffffffffffffffffffffffffffffffffffff1673ffffffffffffffffffffffffffffffffffffffff168152602001908152602001600020866040516118fa9190612694565b90815260200160405180910390208190555080600360008a73ffffffffffffffffffffffffffffffffffffffff1673ffffffffffffffffffffffffffffffffffffffff1681526020019081526020016000208360405161195a9190612694565b908152602001604051809103902060008282546119779190612acc565b925050819055507ec408ab61b1ae1879efdb4157de3c68e0858ca360cb9b4c0ceb7e77a2e7dfe2888684846040516119b29493929190612b2f565b60405180910390a150506119cf565b508080600101915050611754565b505b505080806001019150506115ed565b507f6cbeee6bb521effeae484c1c84f2080aa2c500bd818d5f9864dca513ff6c357782604051611a109190612451565b60405180910390a15050565b60008054906101000a900473ffffffffffffffffffffffffffffffffffffffff1673ffffffffffffffffffffffffffffffffffffffff163373ffffffffffffffffffffffffffffffffffffffff1614611aaa576040517f08c379a0000000000000000000000000000000000000000000000000000000008152600401611aa190612560565b60405180910390fd5b80600160006101000a81548173ffffffffffffffffffffffffffffffffffffffff021916908373ffffffffffffffffffffffffffffffffffffffff16021790555050565b60008054906101000a900473ffffffffffffffffffffffffffffffffffffffff1673ffffffffffffffffffffffffffffffffffffffff163373ffffffffffffffffffffffffffffffffffffffff1614611b7c576040517f08c379a0000000000000000000000000000000000000000000000000000000008152600401611b7390612560565b60405180910390fd5b600482604051611b8c9190612694565b908152602001604051809103902060010160019054906101000a900460ff16611bea576040517f08c379a0000000000000000000000000000000000000000000000000000000008152600401611be190612a7d565b60405180910390fd5b60648160ff161115611c31576040517f08c379a0000000000000000000000000000000000000000000000000000000008152600401611c2890612763565b60405180910390fd5b80600483604051611c429190612694565b908152602001604051809103902060010160006101000a81548160ff021916908360ff1602179055507f6fa7b4638d13e180643c2cc53cf09c95a9fde87bb1cf49e420bcb5addebbb1568282604051611c9c929190612a01565b60405180910390a15050565b6000600482604051611cba9190612694565b908152602001604051809103902060010160019054906101000a900460ff16611d18576040517f08c379a0000000000000000000000000000000000000000000000000000000008152600401611d0f90612a7d565b60405180910390fd5b600482604051611d289190612694565b908152602001604051809103902060010160009054906101000a900460ff169050919050565b600160009054906101000a900473ffffffffffffffffffffffffffffffffffffffff1681565b6000600360008473ffffffffffffffffffffffffffffffffffffffff1673ffffffffffffffffffffffffffffffffffffffff16815260200190815260200160002082604051611dc39190612694565b908152602001604051809103902054905092915050565b6000604051905090565b600080fd5b600080fd5b600080fd5b600080fd5b6000601f19601f8301169050919050565b7f4e487b7100000000000000000000000000000000000000000000000000000000600052604160045260246000fd5b611e4182611df8565b810181811067ffffffffffffffff82111715611e6057611e5f611e09565b5b80604052505050565b6000611e73611dda565b9050611e7f8282611e38565b919050565b600067ffffffffffffffff821115611e9f57611e9e611e09565b5b611ea882611df8565b9050602081019050919050565b82818337600083830152505050565b6000611ed7611ed284611e84565b611e69565b905082815260208101848484011115611ef357611ef2611df3565b5b611efe848285611eb5565b509392505050565b600082601f830112611f1b57611f1a611dee565b5b8135611f2b848260208601611ec4565b91505092915050565b600060208284031215611f4a57611f49611de4565b5b600082013567ffffffffffffffff811115611f6857611f67611de9565b5b611f7484828501611f06565b91505092915050565b600081519050919050565b600082825260208201905092915050565b60005b83811015611fb7578082015181840152602081019050611f9c565b60008484015250505050565b6000611fce82611f7d565b611fd88185611f88565b9350611fe8818560208601611f99565b611ff181611df8565b840191505092915050565b600060ff82169050919050565b61201281611ffc565b82525050565b60008115159050919050565b61202d81612018565b82525050565b6000606082019050818103600083015261204d8186611fc3565b905061205c6020830185612009565b6120696040830184612024565b949350505050565b600073ffffffffffffffffffffffffffffffffffffffff82169050919050565b600061209c82612071565b9050919050565b6120ac81612091565b81146120b757600080fd5b50565b6000813590506120c9816120a3565b92915050565b600080604083850312156120e6576120e5611de4565b5b60006120f4858286016120ba565b925050602083013567ffffffffffffffff81111561211557612114611de9565b5b61212185828601611f06565b9150509250929050565b6000819050919050565b61213e8161212b565b82525050565b60006020820190506121596000830184612135565b92915050565b61216881611ffc565b811461217357600080fd5b50565b6000813590506121858161215f565b92915050565b600080604083850312156121a2576121a1611de4565b5b600083013567ffffffffffffffff8111156121c0576121bf611de9565b5b6121cc85828601611f06565b92505060206121dd85828601612176565b9150509250929050565b6000602082840312156121fd576121fc611de4565b5b600061220b848285016120ba565b91505092915050565b60006040820190506122296000830185612009565b6122366020830184612024565b9392505050565b6122468161212b565b811461225157600080fd5b50565b6000813590506122638161223d565b92915050565b60006020828403121561227f5761227e611de4565b5b600061228d84828501612254565b91505092915050565b600060208201905081810360008301526122b08184611fc3565b905092915050565b600081519050919050565b600082825260208201905092915050565b6000819050602082019050919050565b600082825260208201905092915050565b600061230082611f7d565b61230a81856122e4565b935061231a818560208601611f99565b61232381611df8565b840191505092915050565b600061233a83836122f5565b905092915050565b6000602082019050919050565b600061235a826122b8565b61236481856122c3565b935083602082028501612376856122d4565b8060005b858110156123b25784840389528151612393858261232e565b945061239e83612342565b925060208a0199505060018101905061237a565b50829750879550505050505092915050565b600060208201905081810360008301526123de818461234f565b905092915050565b600080604083850312156123fd576123fc611de4565b5b600083013567ffffffffffffffff81111561241b5761241a611de9565b5b61242785828601611f06565b925050602061243885828601612254565b9150509250929050565b61244b81612091565b82525050565b60006020820190506124666000830184612442565b92915050565b60006020828403121561248257612481611de4565b5b600061249084828501612176565b91505092915050565b60006020820190506124ae6000830184612009565b92915050565b7f4e487b7100000000000000000000000000000000000000000000000000000000600052602260045260246000fd5b600060028204905060018216806124fb57607f821691505b60208210810361250e5761250d6124b4565b5b50919050565b7f4e6f7420617574686f72697a6564000000000000000000000000000000000000600082015250565b600061254a600e83611f88565b915061255582612514565b602082019050919050565b600060208201905081810360008301526125798161253d565b9050919050565b7f415653206e616d652063616e6e6f7420626520656d7074790000000000000000600082015250565b60006125b6601883611f88565b91506125c182612580565b602082019050919050565b600060208201905081810360008301526125e5816125a9565b9050919050565b7f415653206e616d6520746f6f206c6f6e67000000000000000000000000000000600082015250565b6000612622601183611f88565b915061262d826125ec565b602082019050919050565b6000602082019050818103600083015261265181612615565b9050919050565b600081905092915050565b600061266e82611f7d565b6126788185612658565b9350612688818560208601611f99565b80840191505092915050565b60006126a08284612663565b915081905092915050565b7f41565320616c7265616479206578697374730000000000000000000000000000600082015250565b60006126e1601283611f88565b91506126ec826126ab565b602082019050919050565b60006020820190508181036000830152612710816126d4565b9050919050565b7f496e76616c6964207269736b2073636f72650000000000000000000000000000600082015250565b600061274d601283611f88565b915061275882612717565b602082019050919050565b6000602082019050818103600083015261277c81612740565b9050919050565b60008190508160005260206000209050919050565b60006020601f8301049050919050565b600082821b905092915050565b6000600883026127e57fffffffffffffffffffffffffffffffffffffffffffffffffffffffffffffffff826127a8565b6127ef86836127a8565b95508019841693508086168417925050509392505050565b6000819050919050565b600061282c6128276128228461212b565b612807565b61212b565b9050919050565b6000819050919050565b61284683612811565b61285a61285282612833565b8484546127b5565b825550505050565b600090565b61286f612862565b61287a81848461283d565b505050565b5b8181101561289e57612893600082612867565b600181019050612880565b5050565b601f8211156128e3576128b481612783565b6128bd84612798565b810160208510156128cc578190505b6128e06128d885612798565b83018261287f565b50505b505050565b600082821c905092915050565b6000612906600019846008026128e8565b1980831691505092915050565b600061291f83836128f5565b9150826002028217905092915050565b61293882611f7d565b67ffffffffffffffff81111561295157612950611e09565b5b61295b82546124e3565b6129668282856128a2565b600060209050601f8311600181146129995760008415612987578287015190505b6129918582612913565b8655506129f9565b601f1984166129a786612783565b60005b828110156129cf578489015182556001820191506020850194506020810190506129aa565b868310156129ec57848901516129e8601f8916826128f5565b8355505b6001600288020188555050505b505050505050565b60006040820190508181036000830152612a1b8185611fc3565b9050612a2a6020830184612009565b9392505050565b7f415653206e6f7420666f756e6400000000000000000000000000000000000000600082015250565b6000612a67600d83611f88565b9150612a7282612a31565b602082019050919050565b60006020820190508181036000830152612a9681612a5a565b9050919050565b7f4e487b7100000000000000000000000000000000000000000000000000000000600052601160045260246000fd5b6000612ad78261212b565b9150612ae28361212b565b9250828201905080821115612afa57612af9612a9d565b5b92915050565b7f4e487b7100000000000000000000000000000000000000000000000000000000600052603260045260246000fd5b6000608082019050612b446000830187612442565b8181036020830152612b568186611fc3565b90508181036040830152612b6a8185611fc3565b9050612b796060830184612135565b95945050505050565b7f496e76616c69642073636f726500000000000000000000000000000000000000600082015250565b6000612bb8600d83611f88565b9150612bc382612b82565b602082019050919050565b60006020820190508181036000830152612be781612bab565b9050919050565b7f496e76616c6964207468726573686f6c64000000000000000000000000000000600082015250565b6000612c24601183611f88565b9150612c2f82612bee565b602082019050919050565b60006020820190508181036000830152612c5381612c17565b9050919050565b7f5269736b2073636f7265206d7573742062652067726561746572207468616e2060008201527f3000000000000000000000000000000000000000000000000000000000000000602082015250565b6000612cb6602183611f88565b9150612cc182612c5a565b604082019050919050565b60006020820190508181036000830152612ce581612ca9565b9050919050565b6000604082019050612d016000830185612442565b612d0e6020830184612009565b9392505050565b7f5573657220686173206e6f74206f7074656420696e746f206175746f2d72656260008201527f616c616e63696e67000000000000000000000000000000000000000000000000602082015250565b6000612d71602883611f88565b9150612d7c82612d15565b604082019050919050565b60006020820190508181036000830152612da081612d64565b905091905056fea26469706673582212207030534a04ab788efc9498b59059e05e13d79a80e30b9be80dbd543bffc7ee0564736f6c634300081a0033",
  "linkReferences": {},
  "deployedLinkReferences": {}
}