{
  "_format": "hh-sol-artifact-1",
  "contractName": "RRO",
  "sourceName": "contracts/RRO.sol",
  "abi": [
    {
      "inputs": [
        {
          "internalType": "address",
          "name": "backend",
          "type": "address"
        }
      ],
      "stateMutability": "nonpayable",
      "type": "constructor"
    },
    {
      "anonymous": false,
      "inputs": [
        {
          "indexed": false,
          "internalType": "string",
          "name": "name",
          "type": "string"
        },
        {
          "indexed": false,
          "internalType": "uint8",
          "name": "baseRiskScore",
          "type": "uint8"
        }
      ],
      "name": "AVSRegistered",
      "type": "event"
    },
    {
      "anonymous": false,
      "inputs": [
        {
          "indexed": false,
          "internalType": "address",
          "name": "user",
          "type": "address"
        }
      ],
      "name": "RebalanceTriggered",
      "type": "event"
    },
    {
      "anonymous": false,
      "inputs": [
        {
          "indexed": false,
          "internalType": "address",
          "name": "user",
          "type": "address"
        },
        {
          "indexed": false,
          "internalType": "string",
          "name": "fromAVS",
          "type": "string"
        },
        {
          "indexed": false,
          "internalType": "string",
          "name": "toAVS",
          "type": "string"
        },
        {
          "indexed": false,
          "internalType": "uint256",
          "name": "amount",
          "type": "uint256"
        }
      ],
      "name": "Rebalanced",
      "type": "event"
    },
    {
      "anonymous": false,
      "inputs": [
        {
          "indexed": false,
          "internalType": "string",
          "name": "avsName",
          "type": "string"
        },
        {
          "indexed": false,
          "internalType": "uint8",
          "name": "newRiskScore",
          "type": "uint8"
        }
      ],
      "name": "RiskScoreUpdated",
      "type": "event"
    },
    {
      "anonymous": false,
      "inputs": [
        {
          "indexed": false,
          "internalType": "address",
          "name": "user",
          "type": "address"
        },
        {
          "indexed": false,
          "internalType": "uint8",
          "name": "maxRiskScore",
          "type": "uint8"
        }
      ],
      "name": "UserPrefsUpdated",
      "type": "event"
    },
    {
      "inputs": [
        {
          "internalType": "uint256",
          "name": "",
          "type": "uint256"
        }
      ],
      "name": "avsList",
      "outputs": [
        {
          "internalType": "string",
          "name": "",
          "type": "string"
        }
      ],
      "stateMutability": "view",
      "type": "function"
    },
    {
      "inputs": [
        {
          "internalType": "string",
          "name": "",
          "type": "string"
        }
      ],
      "name": "avsRegistry",
      "outputs": [
        {
          "internalType": "string",
          "name": "name",
          "type": "string"
        },
        {
          "internalType": "uint8",
          "name": "baseRiskScore",
          "type": "uint8"
        },
        {
          "internalType": "bool",
          "name": "exists",
          "type": "bool"
        }
      ],
      "stateMutability": "view",
      "type": "function"
    },
    {
      "inputs": [
        {
          "internalType": "string",
          "name": "name",
          "type": "string"
        },
        {
          "internalType": "uint256",
          "name": "amount",
          "type": "uint256"
        }
      ],
      "name": "depositToAVS",
      "outputs": [],
      "stateMutability": "nonpayable",
      "type": "function"
    },
    {
      "inputs": [
        {
          "internalType": "string",
          "name": "avsName",
          "type": "string"
        }
      ],
      "name": "fetchRiskScoreFromOracle",
      "outputs": [
        {
          "internalType": "uint8",
          "name": "",
          "type": "uint8"
        }
      ],
      "stateMutability": "view",
      "type": "function"
    },
    {
      "inputs": [
        {
          "internalType": "string",
          "name": "name",
          "type": "string"
        }
      ],
      "name": "getAVSDetails",
      "outputs": [
        {
          "internalType": "string",
          "name": "avsName",
          "type": "string"
        },
        {
          "internalType": "uint8",
          "name": "baseRiskScore",
          "type": "uint8"
        },
        {
          "internalType": "bool",
          "name": "exists",
          "type": "bool"
        }
      ],
      "stateMutability": "view",
      "type": "function"
    },
    {
      "inputs": [],
      "name": "getAllAVSs",
      "outputs": [
        {
          "internalType": "string[]",
          "name": "",
          "type": "string[]"
        }
      ],
      "stateMutability": "view",
      "type": "function"
    },
    {
      "inputs": [
        {
          "internalType": "string",
          "name": "name",
          "type": "string"
        }
      ],
      "name": "getRiskScore",
      "outputs": [
        {
          "internalType": "uint8",
          "name": "",
          "type": "uint8"
        }
      ],
      "stateMutability": "view",
      "type": "function"
    },
    {
      "inputs": [
        {
          "internalType": "address",
          "name": "user",
          "type": "address"
        },
        {
          "internalType": "string",
          "name": "name",
          "type": "string"
        }
      ],
      "name": "getUserBalance",
      "outputs": [
        {
          "internalType": "uint256",
          "name": "",
          "type": "uint256"
        }
      ],
      "stateMutability": "view",
      "type": "function"
    },
    {
      "inputs": [
        {
          "internalType": "address",
          "name": "user",
          "type": "address"
        }
      ],
      "name": "getUserPreferences",
      "outputs": [
        {
          "internalType": "uint8",
          "name": "maxRiskScore",
          "type": "uint8"
        },
        {
          "internalType": "bool",
          "name": "autoRebalance",
          "type": "bool"
        }
      ],
      "stateMutability": "view",
      "type": "function"
    },
    {
      "inputs": [],
      "name": "owner",
      "outputs": [
        {
          "internalType": "address",
          "name": "",
          "type": "address"
        }
      ],
      "stateMutability": "view",
      "type": "function"
    },
    {
      "inputs": [],
      "name": "rebalance",
      "outputs": [],
      "stateMutability": "nonpayable",
      "type": "function"
    },
    {
      "inputs": [
        {
          "internalType": "string",
          "name": "name",
          "type": "string"
        },
        {
          "internalType": "uint8",
          "name": "baseRiskScore",
          "type": "uint8"
        }
      ],
      "name": "registerAVS",
      "outputs": [],
      "stateMutability": "nonpayable",
      "type": "function"
    },
    {
      "inputs": [],
      "name": "riskScoreOracle",
      "outputs": [
        {
          "internalType": "contract AggregatorV3Interface",
          "name": "",
          "type": "address"
        }
      ],
      "stateMutability": "view",
      "type": "function"
    },
    {
      "inputs": [
        {
          "internalType": "address",
          "name": "oracle",
          "type": "address"
        }
      ],
      "name": "setRiskScoreOracle",
      "outputs": [],
      "stateMutability": "nonpayable",
      "type": "function"
    },
    {
      "inputs": [
        {
          "internalType": "address",
          "name": "backend",
          "type": "address"
        }
      ],
      "name": "setTrustedBackend",
      "outputs": [],
      "stateMutability": "nonpayable",
      "type": "function"
    },
    {
      "inputs": [
        {
          "internalType": "uint8",
          "name": "maxRiskScore",
          "type": "uint8"
        }
      ],
      "name": "setUserPreferences",
      "outputs": [],
      "stateMutability": "nonpayable",
      "type": "function"
    },
    {
      "inputs": [
        {
          "internalType": "address",
          "name": "user",
          "type": "address"
        }
      ],
      "name": "triggerRebalance",
      "outputs": [],
      "stateMutability": "nonpayable",
      "type": "function"
    },
    {
      "inputs": [],
      "name": "trustedBackend",
      "outputs": [
        {
          "internalType": "address",
          "name": "",
          "type": "address"
        }
      ],
      "stateMutability": "view",
      "type": "function"
    },
    {
      "inputs": [
        {
          "internalType": "string",
          "name": "name",
          "type": "string"
        },
        {
          "internalType": "uint8",
          "name": "newRiskScore",
          "type": "uint8"
        }
      ],
      "name": "updateRiskScore",
      "outputs": [],
      "stateMutability": "nonpayable",
      "type": "function"
    },
    {
      "inputs": [
        {
          "internalType": "string",
          "name": "avsName",
          "type": "string"
        }
      ],
      "name": "updateRiskScoreFromOracle",
      "outputs": [],
      "stateMutability": "nonpayable",
      "type": "function"
    },
    {
      "inputs": [
        {
          "internalType": "address",
          "name": "",
          "type": "address"
        },
        {
          "internalType": "string",
          "name": "",
          "type": "string"
        }
      ],
      "name": "userBalances",
      "outputs": [
        {
          "internalType": "uint256",
          "name": "",
          "type": "uint256"
        }
      ],
      "stateMutability": "view",
      "type": "function"
    },
    {
      "inputs": [
        {
          "internalType": "address",
          "name": "",
          "type": "address"
        }
      ],
      "name": "userPreferences",
      "outputs": [
        {
          "internalType": "uint8",
          "name": "maxRiskScore",
          "type": "uint8"
        },
        {
          "internalType": "bool",
          "name": "autoRebalance",
          "type": "bool"
        },
        {
          "internalType": "bool",
          "name": "exists",
          "type": "bool"
        }
      ],
      "stateMutability": "view",
      "type": "function"
    }
  ],
  "bytecode": "0x608060405234801561001057600080fd5b5060405161348c38038061348c8339818101604052810190610032919061011c565b336000806101000a81548173ffffffffffffffffffffffffffffffffffffffff021916908373ffffffffffffffffffffffffffffffffffffffff16021790555080600160006101000a81548173ffffffffffffffffffffffffffffffffffffffff021916908373ffffffffffffffffffffffffffffffffffffffff16021790555050610149565b600080fd5b600073ffffffffffffffffffffffffffffffffffffffff82169050919050565b60006100e9826100be565b9050919050565b6100f9816100de565b811461010457600080fd5b50565b600081519050610116816100f0565b92915050565b600060208284031215610132576101316100b9565b5b600061014084828501610107565b91505092915050565b613334806101586000396000f3fe608060405234801561001057600080fd5b50600436106101425760003560e01c80637d7c2a1c116100b8578063d17f5f3f1161007c578063d17f5f3f1461038c578063d6e31443146103a8578063dc8f53b2146103c6578063e4beb87f146103f6578063e8827cec14610414578063fb0c49861461044457610142565b80637d7c2a1c146103105780638da5cb5b1461031a578063b1bb31c714610338578063bfb451e514610354578063c2db356b1461037057610142565b806335b123331161010a57806335b12333146102115780633865c795146102425780633e314401146102725780635b649ac4146102905780636793bcbf146102ac57806379892ab5146102de57610142565b8063033d62b11461014757806312bd4d74146101795780632989d5b0146101a95780632f3d0fb4146101c5578063317c1bbc146101e1575b600080fd5b610161600480360381019061015c9190612270565b610460565b6040516101709392919061236f565b60405180910390f35b610193600480360381019061018e919061240b565b610542565b6040516101a09190612480565b60405180910390f35b6101c360048036038101906101be9190612270565b61057d565b005b6101df60048036038101906101da91906124c7565b6106ff565b005b6101fb60048036038101906101f69190612270565b6109d7565b6040516102089190612523565b60405180910390f35b61022b6004803603810190610226919061253e565b610b3a565b60405161023992919061256b565b60405180910390f35b61025c600480360381019061025791906125c0565b610bf2565b60405161026991906125ed565b60405180910390f35b61027a610c9e565b604051610287919061271b565b60405180910390f35b6102aa60048036038101906102a5919061273d565b610d77565b005b6102c660048036038101906102c1919061253e565b610e5b565b6040516102d593929190612799565b60405180910390f35b6102f860048036038101906102f39190612270565b610eac565b6040516103079392919061236f565b60405180910390f35b610318611033565b005b610322611505565b60405161032f91906127df565b60405180910390f35b610352600480360381019061034d91906124c7565b611529565b005b61036e600480360381019061036991906127fa565b6116e3565b005b61038a6004803603810190610385919061253e565b611873565b005b6103a660048036038101906103a1919061253e565b611e1a565b005b6103b0611eec565b6040516103bd9190612886565b60405180910390f35b6103e060048036038101906103db9190612270565b611f12565b6040516103ed9190612523565b60405180910390f35b6103fe611fb8565b60405161040b91906127df565b60405180910390f35b61042e6004803603810190610429919061240b565b611fde565b60405161043b9190612480565b60405180910390f35b61045e6004803603810190610459919061253e565b612044565b005b600481805160208101820180518482526020830160208501208183528095505050505050600091509050806000018054610499906128d0565b80601f01602080910402602001604051908101604052809291908181526020018280546104c5906128d0565b80156105125780601f106104e757610100808354040283529160200191610512565b820191906000526020600020905b8154815290600101906020018083116104f557829003601f168201915b5050505050908060010160009054906101000a900460ff16908060010160019054906101000a900460ff16905083565b600360205281600052604060002081805160208101820180518482526020830160208501208183528095505050505050600091509150505481565b600160009054906101000a900473ffffffffffffffffffffffffffffffffffffffff1673ffffffffffffffffffffffffffffffffffffffff163373ffffffffffffffffffffffffffffffffffffffff161461060d576040517f08c379a00000000000000000000000000000000000000000000000000000000081526004016106049061294d565b60405180910390fd5b60048160405161061d91906129a9565b908152602001604051809103902060010160019054906101000a900460ff1661067b576040517f08c379a000000000000000000000000000000000000000000000000000000000815260040161067290612a0c565b60405180910390fd5b6000610686826109d7565b90508060048360405161069991906129a9565b908152602001604051809103902060010160006101000a81548160ff021916908360ff1602179055507f6fa7b4638d13e180643c2cc53cf09c95a9fde87bb1cf49e420bcb5addebbb15682826040516106f3929190612a2c565b60405180910390a15050565b60008054906101000a900473ffffffffffffffffffffffffffffffffffffffff1673ffffffffffffffffffffffffffffffffffffffff163373ffffffffffffffffffffffffffffffffffffffff161461078d576040517f08c379a00000000000000000000000000000000000000000000000000000000081526004016107849061294d565b60405180910390fd5b60008251116107d1576040517f08c379a00000000000000000000000000000000000000000000000000000000081526004016107c890612aa8565b60405180910390fd5b602082511115610816576040517f08c379a000000000000000000000000000000000000000000000000000000000815260040161080d90612b14565b60405180910390fd5b60048260405161082691906129a9565b908152602001604051809103902060010160019054906101000a900460ff1615610885576040517f08c379a000000000000000000000000000000000000000000000000000000000815260040161087c90612b80565b60405180910390fd5b60648160ff1611156108cc576040517f08c379a00000000000000000000000000000000000000000000000000000000081526004016108c390612bec565b60405180910390fd5b60405180606001604052808381526020018260ff168152602001600115158152506004836040516108fd91906129a9565b908152602001604051809103902060008201518160000190816109209190612dae565b5060208201518160010160006101000a81548160ff021916908360ff16021790555060408201518160010160016101000a81548160ff0219169083151502179055509050506005829080600181540180825580915050600190039060005260206000200160009091909190915090816109999190612dae565b507f49f7841fcfb54c8cd7137babf77e556add6837866c329ce3f241664a847f244f82826040516109cb929190612a2c565b60405180910390a15050565b60006004826040516109e991906129a9565b908152602001604051809103902060010160019054906101000a900460ff16610a47576040517f08c379a0000000000000000000000000000000000000000000000000000000008152600401610a3e90612a0c565b60405180910390fd5b6000600660009054906101000a900473ffffffffffffffffffffffffffffffffffffffff1673ffffffffffffffffffffffffffffffffffffffff1663feaf968c6040518163ffffffff1660e01b815260040160a060405180830381865afa158015610ab6573d6000803e3d6000fd5b505050506040513d601f19601f82011682018060405250810190610ada9190612f0d565b50505091505060008112158015610af2575060ff8113155b610b31576040517f08c379a0000000000000000000000000000000000000000000000000000000008152600401610b2890612fd4565b60405180910390fd5b80915050919050565b6000806000600260008573ffffffffffffffffffffffffffffffffffffffff1673ffffffffffffffffffffffffffffffffffffffff1681526020019081526020016000206040518060600160405290816000820160009054906101000a900460ff1660ff1660ff1681526020016000820160019054906101000a900460ff161515151581526020016000820160029054906101000a900460ff1615151515815250509050806000015181602001519250925050915091565b60058181548110610c0257600080fd5b906000526020600020016000915090508054610c1d906128d0565b80601f0160208091040260200160405190810160405280929190818152602001828054610c49906128d0565b8015610c965780601f10610c6b57610100808354040283529160200191610c96565b820191906000526020600020905b815481529060010190602001808311610c7957829003601f168201915b505050505081565b60606005805480602002602001604051908101604052809291908181526020016000905b82821015610d6e578382906000526020600020018054610ce1906128d0565b80601f0160208091040260200160405190810160405280929190818152602001828054610d0d906128d0565b8015610d5a5780601f10610d2f57610100808354040283529160200191610d5a565b820191906000526020600020905b815481529060010190602001808311610d3d57829003601f168201915b505050505081526020019060010190610cc2565b50505050905090565b600482604051610d8791906129a9565b908152602001604051809103902060010160019054906101000a900460ff16610de5576040517f08c379a0000000000000000000000000000000000000000000000000000000008152600401610ddc90612a0c565b60405180910390fd5b80600360003373ffffffffffffffffffffffffffffffffffffffff1673ffffffffffffffffffffffffffffffffffffffff16815260200190815260200160002083604051610e3391906129a9565b90815260200160405180910390206000828254610e509190613023565b925050819055505050565b60026020528060005260406000206000915090508060000160009054906101000a900460ff16908060000160019054906101000a900460ff16908060000160029054906101000a900460ff16905083565b6060600080600484604051610ec191906129a9565b908152602001604051809103902060010160019054906101000a900460ff16610f1f576040517f08c379a0000000000000000000000000000000000000000000000000000000008152600401610f1690612a0c565b60405180910390fd5b6000600485604051610f3191906129a9565b9081526020016040518091039020604051806060016040529081600082018054610f5a906128d0565b80601f0160208091040260200160405190810160405280929190818152602001828054610f86906128d0565b8015610fd35780601f10610fa857610100808354040283529160200191610fd3565b820191906000526020600020905b815481529060010190602001808311610fb657829003601f168201915b505050505081526020016001820160009054906101000a900460ff1660ff1660ff1681526020016001820160019054906101000a900460ff1615151515815250509050806000015181602001518260400151935093509350509193909250565b6000600260003373ffffffffffffffffffffffffffffffffffffffff1673ffffffffffffffffffffffffffffffffffffffff1681526020019081526020016000206040518060600160405290816000820160009054906101000a900460ff1660ff1660ff1681526020016000820160019054906101000a900460ff161515151581526020016000820160029054906101000a900460ff161515151581525050905060005b6005805490508110156114ca576000600582815481106110fa576110f9613057565b5b90600052602060002001805461110f906128d0565b80601f016020809104026020016040519081016040528092919081815260200182805461113b906128d0565b80156111885780601f1061115d57610100808354040283529160200191611188565b820191906000526020600020905b81548152906001019060200180831161116b57829003601f168201915b5050505050905060006004826040516111a191906129a9565b908152602001604051809103902060010160009054906101000a900460ff1690506000600360003373ffffffffffffffffffffffffffffffffffffffff1673ffffffffffffffffffffffffffffffffffffffff1681526020019081526020016000208360405161121191906129a9565b9081526020016040518091039020541180156112365750836000015160ff168160ff16115b156114bb5760005b6005805490508110156114b95760006005828154811061126157611260613057565b5b906000526020600020018054611276906128d0565b80601f01602080910402602001604051908101604052809291908181526020018280546112a2906128d0565b80156112ef5780601f106112c4576101008083540402835291602001916112ef565b820191906000526020600020905b8154815290600101906020018083116112d257829003601f168201915b50505050509050856000015160ff1660048260405161130e91906129a9565b908152602001604051809103902060010160009054906101000a900460ff1660ff16116114ab576000600360003373ffffffffffffffffffffffffffffffffffffffff1673ffffffffffffffffffffffffffffffffffffffff1681526020019081526020016000208560405161138491906129a9565b90815260200160405180910390205490506000600360003373ffffffffffffffffffffffffffffffffffffffff1673ffffffffffffffffffffffffffffffffffffffff168152602001908152602001600020866040516113e491906129a9565b90815260200160405180910390208190555080600360003373ffffffffffffffffffffffffffffffffffffffff1673ffffffffffffffffffffffffffffffffffffffff1681526020019081526020016000208360405161144491906129a9565b908152602001604051809103902060008282546114619190613023565b925050819055507ec408ab61b1ae1879efdb4157de3c68e0858ca360cb9b4c0ceb7e77a2e7dfe23386848460405161149c9493929190613086565b60405180910390a150506114b9565b50808060010191505061123e565b505b505080806001019150506110d7565b507f6cbeee6bb521effeae484c1c84f2080aa2c500bd818d5f9864dca513ff6c3577336040516114fa91906127df565b60405180910390a150565b60008054906101000a900473ffffffffffffffffffffffffffffffffffffffff1681565b60008054906101000a900473ffffffffffffffffffffffffffffffffffffffff1673ffffffffffffffffffffffffffffffffffffffff163373ffffffffffffffffffffffffffffffffffffffff16146115b7576040517f08c379a00000000000000000000000000000000000000000000000000000000081526004016115ae9061294d565b60405180910390fd5b6004826040516115c791906129a9565b908152602001604051809103902060010160019054906101000a900460ff16611625576040517f08c379a000000000000000000000000000000000000000000000000000000000815260040161161c90612a0c565b60405180910390fd5b60648160ff16111561166c576040517f08c379a000000000000000000000000000000000000000000000000000000000815260040161166390613125565b60405180910390fd5b8060048360405161167d91906129a9565b908152602001604051809103902060010160006101000a81548160ff021916908360ff1602179055507f6fa7b4638d13e180643c2cc53cf09c95a9fde87bb1cf49e420bcb5addebbb15682826040516116d7929190612a2c565b60405180910390a15050565b60008160ff1611611729576040517f08c379a0000000000000000000000000000000000000000000000000000000008152600401611720906131b7565b60405180910390fd5b60648160ff161115611770576040517f08c379a000000000000000000000000000000000000000000000000000000000815260040161176790613223565b60405180910390fd5b60405180606001604052808260ff16815260200160011515815260200160011515815250600260003373ffffffffffffffffffffffffffffffffffffffff1673ffffffffffffffffffffffffffffffffffffffff16815260200190815260200160002060008201518160000160006101000a81548160ff021916908360ff16021790555060208201518160000160016101000a81548160ff02191690831515021790555060408201518160000160026101000a81548160ff0219169083151502179055509050507f24f9124c55fc571e16013f069a621bc32b51108a826e83f7dccf4d380a2359f63382604051611868929190613243565b60405180910390a150565b600160009054906101000a900473ffffffffffffffffffffffffffffffffffffffff1673ffffffffffffffffffffffffffffffffffffffff163373ffffffffffffffffffffffffffffffffffffffff1614611903576040517f08c379a00000000000000000000000000000000000000000000000000000000081526004016118fa9061294d565b60405180910390fd5b6000600260008373ffffffffffffffffffffffffffffffffffffffff1673ffffffffffffffffffffffffffffffffffffffff1681526020019081526020016000206040518060600160405290816000820160009054906101000a900460ff1660ff1660ff1681526020016000820160019054906101000a900460ff161515151581526020016000820160029054906101000a900460ff161515151581525050905080604001516119e8576040517f08c379a00000000000000000000000000000000000000000000000000000000081526004016119df906132de565b60405180910390fd5b60005b600580549050811015611dde57600060058281548110611a0e57611a0d613057565b5b906000526020600020018054611a23906128d0565b80601f0160208091040260200160405190810160405280929190818152602001828054611a4f906128d0565b8015611a9c5780601f10611a7157610100808354040283529160200191611a9c565b820191906000526020600020905b815481529060010190602001808311611a7f57829003601f168201915b505050505090506000600482604051611ab591906129a9565b908152602001604051809103902060010160009054906101000a900460ff1690506000600360008773ffffffffffffffffffffffffffffffffffffffff1673ffffffffffffffffffffffffffffffffffffffff16815260200190815260200160002083604051611b2591906129a9565b908152602001604051809103902054118015611b4a5750836000015160ff168160ff16115b15611dcf5760005b600580549050811015611dcd57600060058281548110611b7557611b74613057565b5b906000526020600020018054611b8a906128d0565b80601f0160208091040260200160405190810160405280929190818152602001828054611bb6906128d0565b8015611c035780601f10611bd857610100808354040283529160200191611c03565b820191906000526020600020905b815481529060010190602001808311611be657829003601f168201915b50505050509050856000015160ff16600482604051611c2291906129a9565b908152602001604051809103902060010160009054906101000a900460ff1660ff1611611dbf576000600360008973ffffffffffffffffffffffffffffffffffffffff1673ffffffffffffffffffffffffffffffffffffffff16815260200190815260200160002085604051611c9891906129a9565b90815260200160405180910390205490506000600360008a73ffffffffffffffffffffffffffffffffffffffff1673ffffffffffffffffffffffffffffffffffffffff16815260200190815260200160002086604051611cf891906129a9565b90815260200160405180910390208190555080600360008a73ffffffffffffffffffffffffffffffffffffffff1673ffffffffffffffffffffffffffffffffffffffff16815260200190815260200160002083604051611d5891906129a9565b90815260200160405180910390206000828254611d759190613023565b925050819055507ec408ab61b1ae1879efdb4157de3c68e0858ca360cb9b4c0ceb7e77a2e7dfe288868484604051611db09493929190613086565b60405180910390a15050611dcd565b508080600101915050611b52565b505b505080806001019150506119eb565b507f6cbeee6bb521effeae484c1c84f2080aa2c500bd818d5f9864dca513ff6c357782604051611e0e91906127df565b60405180910390a15050565b60008054906101000a900473ffffffffffffffffffffffffffffffffffffffff1673ffffffffffffffffffffffffffffffffffffffff163373ffffffffffffffffffffffffffffffffffffffff1614611ea8576040517f08c379a0000000000000000000000000000000000000000000000000000000008152600401611e9f9061294d565b60405180910390fd5b80600160006101000a81548173ffffffffffffffffffffffffffffffffffffffff021916908373ffffffffffffffffffffffffffffffffffffffff16021790555050565b600660009054906101000a900473ffffffffffffffffffffffffffffffffffffffff1681565b6000600482604051611f2491906129a9565b908152602001604051809103902060010160019054906101000a900460ff16611f82576040517f08c379a0000000000000000000000000000000000000000000000000000000008152600401611f7990612a0c565b60405180910390fd5b600482604051611f9291906129a9565b908152602001604051809103902060010160009054906101000a900460ff169050919050565b600160009054906101000a900473ffffffffffffffffffffffffffffffffffffffff1681565b6000600360008473ffffffffffffffffffffffffffffffffffffffff1673ffffffffffffffffffffffffffffffffffffffff1681526020019081526020016000208260405161202d91906129a9565b908152602001604051809103902054905092915050565b60008054906101000a900473ffffffffffffffffffffffffffffffffffffffff1673ffffffffffffffffffffffffffffffffffffffff163373ffffffffffffffffffffffffffffffffffffffff16146120d2576040517f08c379a00000000000000000000000000000000000000000000000000000000081526004016120c99061294d565b60405180910390fd5b80600660006101000a81548173ffffffffffffffffffffffffffffffffffffffff021916908373ffffffffffffffffffffffffffffffffffffffff16021790555050565b6000604051905090565b600080fd5b600080fd5b600080fd5b600080fd5b6000601f19601f8301169050919050565b7f4e487b7100000000000000000000000000000000000000000000000000000000600052604160045260246000fd5b61217d82612134565b810181811067ffffffffffffffff8211171561219c5761219b612145565b5b80604052505050565b60006121af612116565b90506121bb8282612174565b919050565b600067ffffffffffffffff8211156121db576121da612145565b5b6121e482612134565b9050602081019050919050565b82818337600083830152505050565b600061221361220e846121c0565b6121a5565b90508281526020810184848401111561222f5761222e61212f565b5b61223a8482856121f1565b509392505050565b600082601f8301126122575761225661212a565b5b8135612267848260208601612200565b91505092915050565b60006020828403121561228657612285612120565b5b600082013567ffffffffffffffff8111156122a4576122a3612125565b5b6122b084828501612242565b91505092915050565b600081519050919050565b600082825260208201905092915050565b60005b838110156122f35780820151818401526020810190506122d8565b60008484015250505050565b600061230a826122b9565b61231481856122c4565b93506123248185602086016122d5565b61232d81612134565b840191505092915050565b600060ff82169050919050565b61234e81612338565b82525050565b60008115159050919050565b61236981612354565b82525050565b6000606082019050818103600083015261238981866122ff565b90506123986020830185612345565b6123a56040830184612360565b949350505050565b600073ffffffffffffffffffffffffffffffffffffffff82169050919050565b60006123d8826123ad565b9050919050565b6123e8816123cd565b81146123f357600080fd5b50565b600081359050612405816123df565b92915050565b6000806040838503121561242257612421612120565b5b6000612430858286016123f6565b925050602083013567ffffffffffffffff81111561245157612450612125565b5b61245d85828601612242565b9150509250929050565b6000819050919050565b61247a81612467565b82525050565b60006020820190506124956000830184612471565b92915050565b6124a481612338565b81146124af57600080fd5b50565b6000813590506124c18161249b565b92915050565b600080604083850312156124de576124dd612120565b5b600083013567ffffffffffffffff8111156124fc576124fb612125565b5b61250885828601612242565b9250506020612519858286016124b2565b9150509250929050565b60006020820190506125386000830184612345565b92915050565b60006020828403121561255457612553612120565b5b6000612562848285016123f6565b91505092915050565b60006040820190506125806000830185612345565b61258d6020830184612360565b9392505050565b61259d81612467565b81146125a857600080fd5b50565b6000813590506125ba81612594565b92915050565b6000602082840312156125d6576125d5612120565b5b60006125e4848285016125ab565b91505092915050565b6000602082019050818103600083015261260781846122ff565b905092915050565b600081519050919050565b600082825260208201905092915050565b6000819050602082019050919050565b600082825260208201905092915050565b6000612657826122b9565b612661818561263b565b93506126718185602086016122d5565b61267a81612134565b840191505092915050565b6000612691838361264c565b905092915050565b6000602082019050919050565b60006126b18261260f565b6126bb818561261a565b9350836020820285016126cd8561262b565b8060005b8581101561270957848403895281516126ea8582612685565b94506126f583612699565b925060208a019950506001810190506126d1565b50829750879550505050505092915050565b6000602082019050818103600083015261273581846126a6565b905092915050565b6000806040838503121561275457612753612120565b5b600083013567ffffffffffffffff81111561277257612771612125565b5b61277e85828601612242565b925050602061278f858286016125ab565b9150509250929050565b60006060820190506127ae6000830186612345565b6127bb6020830185612360565b6127c86040830184612360565b949350505050565b6127d9816123cd565b82525050565b60006020820190506127f460008301846127d0565b92915050565b6000602082840312156128105761280f612120565b5b600061281e848285016124b2565b91505092915050565b6000819050919050565b600061284c612847612842846123ad565b612827565b6123ad565b9050919050565b600061285e82612831565b9050919050565b600061287082612853565b9050919050565b61288081612865565b82525050565b600060208201905061289b6000830184612877565b92915050565b7f4e487b7100000000000000000000000000000000000000000000000000000000600052602260045260246000fd5b600060028204905060018216806128e857607f821691505b6020821081036128fb576128fa6128a1565b5b50919050565b7f4e6f7420617574686f72697a6564000000000000000000000000000000000000600082015250565b6000612937600e836122c4565b915061294282612901565b602082019050919050565b600060208201905081810360008301526129668161292a565b9050919050565b600081905092915050565b6000612983826122b9565b61298d818561296d565b935061299d8185602086016122d5565b80840191505092915050565b60006129b58284612978565b915081905092915050565b7f415653206e6f7420666f756e6400000000000000000000000000000000000000600082015250565b60006129f6600d836122c4565b9150612a01826129c0565b602082019050919050565b60006020820190508181036000830152612a25816129e9565b9050919050565b60006040820190508181036000830152612a4681856122ff565b9050612a556020830184612345565b9392505050565b7f415653206e616d652063616e6e6f7420626520656d7074790000000000000000600082015250565b6000612a926018836122c4565b9150612a9d82612a5c565b602082019050919050565b60006020820190508181036000830152612ac181612a85565b9050919050565b7f415653206e616d6520746f6f206c6f6e67000000000000000000000000000000600082015250565b6000612afe6011836122c4565b9150612b0982612ac8565b602082019050919050565b60006020820190508181036000830152612b2d81612af1565b9050919050565b7f41565320616c7265616479206578697374730000000000000000000000000000600082015250565b6000612b6a6012836122c4565b9150612b7582612b34565b602082019050919050565b60006020820190508181036000830152612b9981612b5d565b9050919050565b7f496e76616c6964207269736b2073636f72650000000000000000000000000000600082015250565b6000612bd66012836122c4565b9150612be182612ba0565b602082019050919050565b60006020820190508181036000830152612c0581612bc9565b9050919050565b60008190508160005260206000209050919050565b60006020601f8301049050919050565b600082821b905092915050565b600060088302612c6e7fffffffffffffffffffffffffffffffffffffffffffffffffffffffffffffffff82612c31565b612c788683612c31565b95508019841693508086168417925050509392505050565b6000612cab612ca6612ca184612467565b612827565b612467565b9050919050565b6000819050919050565b612cc583612c90565b612cd9612cd182612cb2565b848454612c3e565b825550505050565b600090565b612cee612ce1565b612cf9818484612cbc565b505050565b5b81811015612d1d57612d12600082612ce6565b600181019050612cff565b5050565b601f821115612d6257612d3381612c0c565b612d3c84612c21565b81016020851015612d4b578190505b612d5f612d5785612c21565b830182612cfe565b50505b505050565b600082821c905092915050565b6000612d8560001984600802612d67565b1980831691505092915050565b6000612d9e8383612d74565b9150826002028217905092915050565b612db7826122b9565b67ffffffffffffffff811115612dd057612dcf612145565b5b612dda82546128d0565b612de5828285612d21565b600060209050601f831160018114612e185760008415612e06578287015190505b612e108582612d92565b865550612e78565b601f198416612e2686612c0c565b60005b82811015612e4e57848901518255600182019150602085019450602081019050612e29565b86831015612e6b5784890151612e67601f891682612d74565b8355505b6001600288020188555050505b505050505050565b600069ffffffffffffffffffff82169050919050565b612e9f81612e80565b8114612eaa57600080fd5b50565b600081519050612ebc81612e96565b92915050565b6000819050919050565b612ed581612ec2565b8114612ee057600080fd5b50565b600081519050612ef281612ecc565b92915050565b600081519050612f0781612594565b92915050565b600080600080600060a08688031215612f2957612f28612120565b5b6000612f3788828901612ead565b9550506020612f4888828901612ee3565b9450506040612f5988828901612ef8565b9350506060612f6a88828901612ef8565b9250506080612f7b88828901612ead565b9150509295509295909350565b7f496e76616c6964207269736b2073636f72652066726f6d206f7261636c650000600082015250565b6000612fbe601e836122c4565b9150612fc982612f88565b602082019050919050565b60006020820190508181036000830152612fed81612fb1565b9050919050565b7f4e487b7100000000000000000000000000000000000000000000000000000000600052601160045260246000fd5b600061302e82612467565b915061303983612467565b925082820190508082111561305157613050612ff4565b5b92915050565b7f4e487b7100000000000000000000000000000000000000000000000000000000600052603260045260246000fd5b600060808201905061309b60008301876127d0565b81810360208301526130ad81866122ff565b905081810360408301526130c181856122ff565b90506130d06060830184612471565b95945050505050565b7f496e76616c69642073636f726500000000000000000000000000000000000000600082015250565b600061310f600d836122c4565b915061311a826130d9565b602082019050919050565b6000602082019050818103600083015261313e81613102565b9050919050565b7f5269736b2073636f7265206d7573742062652067726561746572207468616e2060008201527f3000000000000000000000000000000000000000000000000000000000000000602082015250565b60006131a16021836122c4565b91506131ac82613145565b604082019050919050565b600060208201905081810360008301526131d081613194565b9050919050565b7f496e76616c6964207468726573686f6c64000000000000000000000000000000600082015250565b600061320d6011836122c4565b9150613218826131d7565b602082019050919050565b6000602082019050818103600083015261323c81613200565b9050919050565b600060408201905061325860008301856127d0565b6132656020830184612345565b9392505050565b7f5573657220686173206e6f74206f7074656420696e746f206175746f2d72656260008201527f616c616e63696e67000000000000000000000000000000000000000000000000602082015250565b60006132c86028836122c4565b91506132d38261326c565b604082019050919050565b600060208201905081810360008301526132f7816132bb565b905091905056fea26469706673582212206338a4ba013f286728ab5f3a40065e75c77db97c544d96d601418df1e3d44a3a64736f6c634300081a0033",
  "linkReferences": {},
  "deployedLinkReferences": {}
}