{
  "_format": "hh-sol-artifact-1",
  "contractName": "RRO",
  "sourceName": "contracts/RRO.sol",
  "abi": [
    {
      "inputs": [
        {
          "internalType": "address",
          "name": "backend",
          "type": "address"
        }
      ],
      "stateMutability": "nonpayable",
      "type": "constructor"
    },
    {
      "anonymous": false,
      "inputs": [
        {
          "indexed": false,
          "internalType": "string",
          "name": "name",
          "type": "string"
        },
        {
          "indexed": false,
          "internalType": "uint8",
          "name": "baseRiskScore",
          "type": "uint8"
        }
      ],
      "name": "AVSRegistered",
      "type": "event"
    },
    {
      "anonymous": false,
      "inputs": [
        {
          "indexed": false,
          "internalType": "address",
          "name": "user",
          "type": "address"
        }
      ],
      "name": "RebalanceTriggered",
      "type": "event"
    },
    {
      "anonymous": false,
      "inputs": [
        {
          "indexed": false,
          "internalType": "address",
          "name": "user",
          "type": "address"
        },
        {
          "indexed": false,
          "internalType": "string",
          "name": "fromAVS",
          "type": "string"
        },
        {
          "indexed": false,
          "internalType": "string",
          "name": "toAVS",
          "type": "string"
        },
        {
          "indexed": false,
          "internalType": "uint256",
          "name": "amount",
          "type": "uint256"
        }
      ],
      "name": "Rebalanced",
      "type": "event"
    },
    {
      "anonymous": false,
      "inputs": [
        {
          "indexed": false,
          "internalType": "string",
          "name": "avsName",
          "type": "string"
        },
        {
          "indexed": false,
          "internalType": "uint8",
          "name": "newRiskScore",
          "type": "uint8"
        }
      ],
      "name": "RiskScoreUpdated",
      "type": "event"
    },
    {
      "anonymous": false,
      "inputs": [
        {
          "indexed": false,
          "internalType": "address",
          "name": "user",
          "type": "address"
        },
        {
          "indexed": false,
          "internalType": "uint8",
          "name": "maxRiskScore",
          "type": "uint8"
        }
      ],
      "name": "UserPrefsUpdated",
      "type": "event"
    },
    {
      "inputs": [
        {
          "internalType": "uint256",
          "name": "",
          "type": "uint256"
        }
      ],
      "name": "avsList",
      "outputs": [
        {
          "internalType": "string",
          "name": "",
          "type": "string"
        }
      ],
      "stateMutability": "view",
      "type": "function"
    },
    {
      "inputs": [
        {
          "internalType": "string",
          "name": "",
          "type": "string"
        }
      ],
      "name": "avsRegistry",
      "outputs": [
        {
          "internalType": "string",
          "name": "name",
          "type": "string"
        },
        {
          "internalType": "uint8",
          "name": "baseRiskScore",
          "type": "uint8"
        },
        {
          "internalType": "bool",
          "name": "exists",
          "type": "bool"
        }
      ],
      "stateMutability": "view",
      "type": "function"
    },
    {
      "inputs": [
        {
          "internalType": "string",
          "name": "name",
          "type": "string"
        },
        {
          "internalType": "uint256",
          "name": "amount",
          "type": "uint256"
        }
      ],
      "name": "depositToAVS",
      "outputs": [],
      "stateMutability": "nonpayable",
      "type": "function"
    },
    {
      "inputs": [
        {
          "internalType": "string",
          "name": "avsName",
          "type": "string"
        }
      ],
      "name": "fetchRiskScoreFromOracle",
      "outputs": [
        {
          "internalType": "uint8",
          "name": "",
          "type": "uint8"
        }
      ],
      "stateMutability": "view",
      "type": "function"
    },
    {
      "inputs": [
        {
          "internalType": "string",
          "name": "name",
          "type": "string"
        }
      ],
      "name": "getAVSDetails",
      "outputs": [
        {
          "internalType": "string",
          "name": "avsName",
          "type": "string"
        },
        {
          "internalType": "uint8",
          "name": "baseRiskScore",
          "type": "uint8"
        },
        {
          "internalType": "bool",
          "name": "exists",
          "type": "bool"
        }
      ],
      "stateMutability": "view",
      "type": "function"
    },
    {
      "inputs": [],
      "name": "getAllAVSs",
      "outputs": [
        {
          "internalType": "string[]",
          "name": "",
          "type": "string[]"
        }
      ],
      "stateMutability": "view",
      "type": "function"
    },
    {
      "inputs": [
        {
          "internalType": "string",
          "name": "name",
          "type": "string"
        }
      ],
      "name": "getRiskScore",
      "outputs": [
        {
          "internalType": "uint8",
          "name": "",
          "type": "uint8"
        }
      ],
      "stateMutability": "view",
      "type": "function"
    },
    {
      "inputs": [
        {
          "internalType": "address",
          "name": "user",
          "type": "address"
        },
        {
          "internalType": "string",
          "name": "name",
          "type": "string"
        }
      ],
      "name": "getUserBalance",
      "outputs": [
        {
          "internalType": "uint256",
          "name": "",
          "type": "uint256"
        }
      ],
      "stateMutability": "view",
      "type": "function"
    },
    {
      "inputs": [
        {
          "internalType": "address",
          "name": "user",
          "type": "address"
        }
      ],
      "name": "getUserPreferences",
      "outputs": [
        {
          "internalType": "uint8",
          "name": "maxRiskScore",
          "type": "uint8"
        },
        {
          "internalType": "bool",
          "name": "autoRebalance",
          "type": "bool"
        }
      ],
      "stateMutability": "view",
      "type": "function"
    },
    {
      "inputs": [],
      "name": "owner",
      "outputs": [
        {
          "internalType": "address",
          "name": "",
          "type": "address"
        }
      ],
      "stateMutability": "view",
      "type": "function"
    },
    {
      "inputs": [],
      "name": "rebalance",
      "outputs": [],
      "stateMutability": "nonpayable",
      "type": "function"
    },
    {
      "inputs": [
        {
          "internalType": "string",
          "name": "name",
          "type": "string"
        },
        {
          "internalType": "uint8",
          "name": "baseRiskScore",
          "type": "uint8"
        }
      ],
      "name": "registerAVS",
      "outputs": [],
      "stateMutability": "nonpayable",
      "type": "function"
    },
    {
      "inputs": [],
      "name": "riskScoreOracle",
      "outputs": [
        {
          "internalType": "contract AggregatorV3Interface",
          "name": "",
          "type": "address"
        }
      ],
      "stateMutability": "view",
      "type": "function"
    },
    {
      "inputs": [
        {
          "internalType": "address",
          "name": "oracle",
          "type": "address"
        }
      ],
      "name": "setRiskScoreOracle",
      "outputs": [],
      "stateMutability": "nonpayable",
      "type": "function"
    },
    {
      "inputs": [
        {
          "internalType": "address",
          "name": "backend",
          "type": "address"
        }
      ],
      "name": "setTrustedBackend",
      "outputs": [],
      "stateMutability": "nonpayable",
      "type": "function"
    },
    {
      "inputs": [
        {
          "internalType": "uint8",
          "name": "maxRiskScore",
          "type": "uint8"
        }
      ],
      "name": "setUserPreferences",
      "outputs": [],
      "stateMutability": "nonpayable",
      "type": "function"
    },
    {
      "inputs": [
        {
          "internalType": "address",
          "name": "user",
          "type": "address"
        }
      ],
      "name": "triggerRebalance",
      "outputs": [],
      "stateMutability": "nonpayable",
      "type": "function"
    },
    {
      "inputs": [],
      "name": "trustedBackend",
      "outputs": [
        {
          "internalType": "address",
          "name": "",
          "type": "address"
        }
      ],
      "stateMutability": "view",
      "type": "function"
    },
    {
      "inputs": [
        {
          "internalType": "string",
          "name": "name",
          "type": "string"
        },
        {
          "internalType": "uint8",
          "name": "newRiskScore",
          "type": "uint8"
        }
      ],
      "name": "updateRiskScore",
      "outputs": [],
      "stateMutability": "nonpayable",
      "type": "function"
    },
    {
      "inputs": [
        {
          "internalType": "string",
          "name": "avsName",
          "type": "string"
        }
      ],
      "name": "updateRiskScoreFromOracle",
      "outputs": [],
      "stateMutability": "nonpayable",
      "type": "function"
    },
    {
      "inputs": [
        {
          "internalType": "address",
          "name": "",
          "type": "address"
        },
        {
          "internalType": "string",
          "name": "",
          "type": "string"
        }
      ],
      "name": "userBalances",
      "outputs": [
        {
          "internalType": "uint256",
          "name": "",
          "type": "uint256"
        }
      ],
      "stateMutability": "view",
      "type": "function"
    },
    {
      "inputs": [
        {
          "internalType": "address",
          "name": "",
          "type": "address"
        }
      ],
      "name": "userPreferences",
      "outputs": [
        {
          "internalType": "uint8",
          "name": "maxRiskScore",
          "type": "uint8"
        },
        {
          "internalType": "bool",
          "name": "autoRebalance",
          "type": "bool"
        }
      ],
      "stateMutability": "view",
      "type": "function"
    }
  ],
  "bytecode": "0x608060405234801561001057600080fd5b506040516133c73803806133c78339818101604052810190610032919061011c565b336000806101000a81548173ffffffffffffffffffffffffffffffffffffffff021916908373ffffffffffffffffffffffffffffffffffffffff16021790555080600160006101000a81548173ffffffffffffffffffffffffffffffffffffffff021916908373ffffffffffffffffffffffffffffffffffffffff16021790555050610149565b600080fd5b600073ffffffffffffffffffffffffffffffffffffffff82169050919050565b60006100e9826100be565b9050919050565b6100f9816100de565b811461010457600080fd5b50565b600081519050610116816100f0565b92915050565b600060208284031215610132576101316100b9565b5b600061014084828501610107565b91505092915050565b61326f806101586000396000f3fe608060405234801561001057600080fd5b50600436106101425760003560e01c80637d7c2a1c116100b8578063d17f5f3f1161007c578063d17f5f3f1461038b578063d6e31443146103a7578063dc8f53b2146103c5578063e4beb87f146103f5578063e8827cec14610413578063fb0c49861461044357610142565b80637d7c2a1c1461030f5780638da5cb5b14610319578063b1bb31c714610337578063bfb451e514610353578063c2db356b1461036f57610142565b806335b123331161010a57806335b12333146102115780633865c795146102425780633e314401146102725780635b649ac4146102905780636793bcbf146102ac57806379892ab5146102dd57610142565b8063033d62b11461014757806312bd4d74146101795780632989d5b0146101a95780632f3d0fb4146101c5578063317c1bbc146101e1575b600080fd5b610161600480360381019061015c91906121e2565b61045f565b604051610170939291906122e1565b60405180910390f35b610193600480360381019061018e919061237d565b610541565b6040516101a091906123f2565b60405180910390f35b6101c360048036038101906101be91906121e2565b61057c565b005b6101df60048036038101906101da9190612439565b6106fe565b005b6101fb60048036038101906101f691906121e2565b6109d6565b6040516102089190612495565b60405180910390f35b61022b600480360381019061022691906124b0565b610b39565b6040516102399291906124dd565b60405180910390f35b61025c60048036038101906102579190612532565b610bd6565b604051610269919061255f565b60405180910390f35b61027a610c82565b604051610287919061268d565b60405180910390f35b6102aa60048036038101906102a591906126af565b610d5b565b005b6102c660048036038101906102c191906124b0565b610e3f565b6040516102d49291906124dd565b60405180910390f35b6102f760048036038101906102f291906121e2565b610e7d565b604051610306939291906122e1565b60405180910390f35b610317611004565b005b6103216114bb565b60405161032e919061271a565b60405180910390f35b610351600480360381019061034c9190612439565b6114df565b005b61036d60048036038101906103689190612735565b611699565b005b610389600480360381019061038491906124b0565b611800565b005b6103a560048036038101906103a091906124b0565b611d8c565b005b6103af611e5e565b6040516103bc91906127c1565b60405180910390f35b6103df60048036038101906103da91906121e2565b611e84565b6040516103ec9190612495565b60405180910390f35b6103fd611f2a565b60405161040a919061271a565b60405180910390f35b61042d6004803603810190610428919061237d565b611f50565b60405161043a91906123f2565b60405180910390f35b61045d600480360381019061045891906124b0565b611fb6565b005b6004818051602081018201805184825260208301602085012081835280955050505050506000915090508060000180546104989061280b565b80601f01602080910402602001604051908101604052809291908181526020018280546104c49061280b565b80156105115780601f106104e657610100808354040283529160200191610511565b820191906000526020600020905b8154815290600101906020018083116104f457829003601f168201915b5050505050908060010160009054906101000a900460ff16908060010160019054906101000a900460ff16905083565b600360205281600052604060002081805160208101820180518482526020830160208501208183528095505050505050600091509150505481565b600160009054906101000a900473ffffffffffffffffffffffffffffffffffffffff1673ffffffffffffffffffffffffffffffffffffffff163373ffffffffffffffffffffffffffffffffffffffff161461060c576040517f08c379a000000000000000000000000000000000000000000000000000000000815260040161060390612888565b60405180910390fd5b60048160405161061c91906128e4565b908152602001604051809103902060010160019054906101000a900460ff1661067a576040517f08c379a000000000000000000000000000000000000000000000000000000000815260040161067190612947565b60405180910390fd5b6000610685826109d6565b90508060048360405161069891906128e4565b908152602001604051809103902060010160006101000a81548160ff021916908360ff1602179055507f6fa7b4638d13e180643c2cc53cf09c95a9fde87bb1cf49e420bcb5addebbb15682826040516106f2929190612967565b60405180910390a15050565b60008054906101000a900473ffffffffffffffffffffffffffffffffffffffff1673ffffffffffffffffffffffffffffffffffffffff163373ffffffffffffffffffffffffffffffffffffffff161461078c576040517f08c379a000000000000000000000000000000000000000000000000000000000815260040161078390612888565b60405180910390fd5b60008251116107d0576040517f08c379a00000000000000000000000000000000000000000000000000000000081526004016107c7906129e3565b60405180910390fd5b602082511115610815576040517f08c379a000000000000000000000000000000000000000000000000000000000815260040161080c90612a4f565b60405180910390fd5b60048260405161082591906128e4565b908152602001604051809103902060010160019054906101000a900460ff1615610884576040517f08c379a000000000000000000000000000000000000000000000000000000000815260040161087b90612abb565b60405180910390fd5b60648160ff1611156108cb576040517f08c379a00000000000000000000000000000000000000000000000000000000081526004016108c290612b27565b60405180910390fd5b60405180606001604052808381526020018260ff168152602001600115158152506004836040516108fc91906128e4565b9081526020016040518091039020600082015181600001908161091f9190612ce9565b5060208201518160010160006101000a81548160ff021916908360ff16021790555060408201518160010160016101000a81548160ff0219169083151502179055509050506005829080600181540180825580915050600190039060005260206000200160009091909190915090816109989190612ce9565b507f49f7841fcfb54c8cd7137babf77e556add6837866c329ce3f241664a847f244f82826040516109ca929190612967565b60405180910390a15050565b60006004826040516109e891906128e4565b908152602001604051809103902060010160019054906101000a900460ff16610a46576040517f08c379a0000000000000000000000000000000000000000000000000000000008152600401610a3d90612947565b60405180910390fd5b6000600660009054906101000a900473ffffffffffffffffffffffffffffffffffffffff1673ffffffffffffffffffffffffffffffffffffffff1663feaf968c6040518163ffffffff1660e01b815260040160a060405180830381865afa158015610ab5573d6000803e3d6000fd5b505050506040513d601f19601f82011682018060405250810190610ad99190612e48565b50505091505060008112158015610af1575060ff8113155b610b30576040517f08c379a0000000000000000000000000000000000000000000000000000000008152600401610b2790612f0f565b60405180910390fd5b80915050919050565b6000806000600260008573ffffffffffffffffffffffffffffffffffffffff1673ffffffffffffffffffffffffffffffffffffffff1681526020019081526020016000206040518060400160405290816000820160009054906101000a900460ff1660ff1660ff1681526020016000820160019054906101000a900460ff1615151515815250509050806000015181602001519250925050915091565b60058181548110610be657600080fd5b906000526020600020016000915090508054610c019061280b565b80601f0160208091040260200160405190810160405280929190818152602001828054610c2d9061280b565b8015610c7a5780601f10610c4f57610100808354040283529160200191610c7a565b820191906000526020600020905b815481529060010190602001808311610c5d57829003601f168201915b505050505081565b60606005805480602002602001604051908101604052809291908181526020016000905b82821015610d52578382906000526020600020018054610cc59061280b565b80601f0160208091040260200160405190810160405280929190818152602001828054610cf19061280b565b8015610d3e5780601f10610d1357610100808354040283529160200191610d3e565b820191906000526020600020905b815481529060010190602001808311610d2157829003601f168201915b505050505081526020019060010190610ca6565b50505050905090565b600482604051610d6b91906128e4565b908152602001604051809103902060010160019054906101000a900460ff16610dc9576040517f08c379a0000000000000000000000000000000000000000000000000000000008152600401610dc090612947565b60405180910390fd5b80600360003373ffffffffffffffffffffffffffffffffffffffff1673ffffffffffffffffffffffffffffffffffffffff16815260200190815260200160002083604051610e1791906128e4565b90815260200160405180910390206000828254610e349190612f5e565b925050819055505050565b60026020528060005260406000206000915090508060000160009054906101000a900460ff16908060000160019054906101000a900460ff16905082565b6060600080600484604051610e9291906128e4565b908152602001604051809103902060010160019054906101000a900460ff16610ef0576040517f08c379a0000000000000000000000000000000000000000000000000000000008152600401610ee790612947565b60405180910390fd5b6000600485604051610f0291906128e4565b9081526020016040518091039020604051806060016040529081600082018054610f2b9061280b565b80601f0160208091040260200160405190810160405280929190818152602001828054610f579061280b565b8015610fa45780601f10610f7957610100808354040283529160200191610fa4565b820191906000526020600020905b815481529060010190602001808311610f8757829003601f168201915b505050505081526020016001820160009054906101000a900460ff1660ff1660ff1681526020016001820160019054906101000a900460ff1615151515815250509050806000015181602001518260400151935093509350509193909250565b6000600260003373ffffffffffffffffffffffffffffffffffffffff1673ffffffffffffffffffffffffffffffffffffffff1681526020019081526020016000206040518060400160405290816000820160009054906101000a900460ff1660ff1660ff1681526020016000820160019054906101000a900460ff161515151581525050905060005b600580549050811015611480576000600582815481106110b0576110af612f92565b5b9060005260206000200180546110c59061280b565b80601f01602080910402602001604051908101604052809291908181526020018280546110f19061280b565b801561113e5780601f106111135761010080835404028352916020019161113e565b820191906000526020600020905b81548152906001019060200180831161112157829003601f168201915b50505050509050600060048260405161115791906128e4565b908152602001604051809103902060010160009054906101000a900460ff1690506000600360003373ffffffffffffffffffffffffffffffffffffffff1673ffffffffffffffffffffffffffffffffffffffff168152602001908152602001600020836040516111c791906128e4565b9081526020016040518091039020541180156111ec5750836000015160ff168160ff16115b156114715760005b60058054905081101561146f5760006005828154811061121757611216612f92565b5b90600052602060002001805461122c9061280b565b80601f01602080910402602001604051908101604052809291908181526020018280546112589061280b565b80156112a55780601f1061127a576101008083540402835291602001916112a5565b820191906000526020600020905b81548152906001019060200180831161128857829003601f168201915b50505050509050856000015160ff166004826040516112c491906128e4565b908152602001604051809103902060010160009054906101000a900460ff1660ff1611611461576000600360003373ffffffffffffffffffffffffffffffffffffffff1673ffffffffffffffffffffffffffffffffffffffff1681526020019081526020016000208560405161133a91906128e4565b90815260200160405180910390205490506000600360003373ffffffffffffffffffffffffffffffffffffffff1673ffffffffffffffffffffffffffffffffffffffff1681526020019081526020016000208660405161139a91906128e4565b90815260200160405180910390208190555080600360003373ffffffffffffffffffffffffffffffffffffffff1673ffffffffffffffffffffffffffffffffffffffff168152602001908152602001600020836040516113fa91906128e4565b908152602001604051809103902060008282546114179190612f5e565b925050819055507ec408ab61b1ae1879efdb4157de3c68e0858ca360cb9b4c0ceb7e77a2e7dfe2338684846040516114529493929190612fc1565b60405180910390a1505061146f565b5080806001019150506111f4565b505b5050808060010191505061108d565b507f6cbeee6bb521effeae484c1c84f2080aa2c500bd818d5f9864dca513ff6c3577336040516114b0919061271a565b60405180910390a150565b60008054906101000a900473ffffffffffffffffffffffffffffffffffffffff1681565b60008054906101000a900473ffffffffffffffffffffffffffffffffffffffff1673ffffffffffffffffffffffffffffffffffffffff163373ffffffffffffffffffffffffffffffffffffffff161461156d576040517f08c379a000000000000000000000000000000000000000000000000000000000815260040161156490612888565b60405180910390fd5b60048260405161157d91906128e4565b908152602001604051809103902060010160019054906101000a900460ff166115db576040517f08c379a00000000000000000000000000000000000000000000000000000000081526004016115d290612947565b60405180910390fd5b60648160ff161115611622576040517f08c379a000000000000000000000000000000000000000000000000000000000815260040161161990613060565b60405180910390fd5b8060048360405161163391906128e4565b908152602001604051809103902060010160006101000a81548160ff021916908360ff1602179055507f6fa7b4638d13e180643c2cc53cf09c95a9fde87bb1cf49e420bcb5addebbb156828260405161168d929190612967565b60405180910390a15050565b60648160ff1611156116e0576040517f08c379a00000000000000000000000000000000000000000000000000000000081526004016116d7906130cc565b60405180910390fd5b60008160ff1611611726576040517f08c379a000000000000000000000000000000000000000000000000000000000815260040161171d9061315e565b60405180910390fd5b60405180604001604052808260ff16815260200160011515815250600260003373ffffffffffffffffffffffffffffffffffffffff1673ffffffffffffffffffffffffffffffffffffffff16815260200190815260200160002060008201518160000160006101000a81548160ff021916908360ff16021790555060208201518160000160016101000a81548160ff0219169083151502179055509050507f24f9124c55fc571e16013f069a621bc32b51108a826e83f7dccf4d380a2359f633826040516117f592919061317e565b60405180910390a150565b600160009054906101000a900473ffffffffffffffffffffffffffffffffffffffff1673ffffffffffffffffffffffffffffffffffffffff163373ffffffffffffffffffffffffffffffffffffffff1614611890576040517f08c379a000000000000000000000000000000000000000000000000000000000815260040161188790612888565b60405180910390fd5b6000600260008373ffffffffffffffffffffffffffffffffffffffff1673ffffffffffffffffffffffffffffffffffffffff1681526020019081526020016000206040518060400160405290816000820160009054906101000a900460ff1660ff1660ff1681526020016000820160019054906101000a900460ff1615151515815250509050806020015161195a576040517f08c379a000000000000000000000000000000000000000000000000000000000815260040161195190613219565b60405180910390fd5b60005b600580549050811015611d50576000600582815481106119805761197f612f92565b5b9060005260206000200180546119959061280b565b80601f01602080910402602001604051908101604052809291908181526020018280546119c19061280b565b8015611a0e5780601f106119e357610100808354040283529160200191611a0e565b820191906000526020600020905b8154815290600101906020018083116119f157829003601f168201915b505050505090506000600482604051611a2791906128e4565b908152602001604051809103902060010160009054906101000a900460ff1690506000600360008773ffffffffffffffffffffffffffffffffffffffff1673ffffffffffffffffffffffffffffffffffffffff16815260200190815260200160002083604051611a9791906128e4565b908152602001604051809103902054118015611abc5750836000015160ff168160ff16115b15611d415760005b600580549050811015611d3f57600060058281548110611ae757611ae6612f92565b5b906000526020600020018054611afc9061280b565b80601f0160208091040260200160405190810160405280929190818152602001828054611b289061280b565b8015611b755780601f10611b4a57610100808354040283529160200191611b75565b820191906000526020600020905b815481529060010190602001808311611b5857829003601f168201915b50505050509050856000015160ff16600482604051611b9491906128e4565b908152602001604051809103902060010160009054906101000a900460ff1660ff1611611d31576000600360008973ffffffffffffffffffffffffffffffffffffffff1673ffffffffffffffffffffffffffffffffffffffff16815260200190815260200160002085604051611c0a91906128e4565b90815260200160405180910390205490506000600360008a73ffffffffffffffffffffffffffffffffffffffff1673ffffffffffffffffffffffffffffffffffffffff16815260200190815260200160002086604051611c6a91906128e4565b90815260200160405180910390208190555080600360008a73ffffffffffffffffffffffffffffffffffffffff1673ffffffffffffffffffffffffffffffffffffffff16815260200190815260200160002083604051611cca91906128e4565b90815260200160405180910390206000828254611ce79190612f5e565b925050819055507ec408ab61b1ae1879efdb4157de3c68e0858ca360cb9b4c0ceb7e77a2e7dfe288868484604051611d229493929190612fc1565b60405180910390a15050611d3f565b508080600101915050611ac4565b505b5050808060010191505061195d565b507f6cbeee6bb521effeae484c1c84f2080aa2c500bd818d5f9864dca513ff6c357782604051611d80919061271a565b60405180910390a15050565b60008054906101000a900473ffffffffffffffffffffffffffffffffffffffff1673ffffffffffffffffffffffffffffffffffffffff163373ffffffffffffffffffffffffffffffffffffffff1614611e1a576040517f08c379a0000000000000000000000000000000000000000000000000000000008152600401611e1190612888565b60405180910390fd5b80600160006101000a81548173ffffffffffffffffffffffffffffffffffffffff021916908373ffffffffffffffffffffffffffffffffffffffff16021790555050565b600660009054906101000a900473ffffffffffffffffffffffffffffffffffffffff1681565b6000600482604051611e9691906128e4565b908152602001604051809103902060010160019054906101000a900460ff16611ef4576040517f08c379a0000000000000000000000000000000000000000000000000000000008152600401611eeb90612947565b60405180910390fd5b600482604051611f0491906128e4565b908152602001604051809103902060010160009054906101000a900460ff169050919050565b600160009054906101000a900473ffffffffffffffffffffffffffffffffffffffff1681565b6000600360008473ffffffffffffffffffffffffffffffffffffffff1673ffffffffffffffffffffffffffffffffffffffff16815260200190815260200160002082604051611f9f91906128e4565b908152602001604051809103902054905092915050565b60008054906101000a900473ffffffffffffffffffffffffffffffffffffffff1673ffffffffffffffffffffffffffffffffffffffff163373ffffffffffffffffffffffffffffffffffffffff1614612044576040517f08c379a000000000000000000000000000000000000000000000000000000000815260040161203b90612888565b60405180910390fd5b80600660006101000a81548173ffffffffffffffffffffffffffffffffffffffff021916908373ffffffffffffffffffffffffffffffffffffffff16021790555050565b6000604051905090565b600080fd5b600080fd5b600080fd5b600080fd5b6000601f19601f8301169050919050565b7f4e487b7100000000000000000000000000000000000000000000000000000000600052604160045260246000fd5b6120ef826120a6565b810181811067ffffffffffffffff8211171561210e5761210d6120b7565b5b80604052505050565b6000612121612088565b905061212d82826120e6565b919050565b600067ffffffffffffffff82111561214d5761214c6120b7565b5b612156826120a6565b9050602081019050919050565b82818337600083830152505050565b600061218561218084612132565b612117565b9050828152602081018484840111156121a1576121a06120a1565b5b6121ac848285612163565b509392505050565b600082601f8301126121c9576121c861209c565b5b81356121d9848260208601612172565b91505092915050565b6000602082840312156121f8576121f7612092565b5b600082013567ffffffffffffffff81111561221657612215612097565b5b612222848285016121b4565b91505092915050565b600081519050919050565b600082825260208201905092915050565b60005b8381101561226557808201518184015260208101905061224a565b60008484015250505050565b600061227c8261222b565b6122868185612236565b9350612296818560208601612247565b61229f816120a6565b840191505092915050565b600060ff82169050919050565b6122c0816122aa565b82525050565b60008115159050919050565b6122db816122c6565b82525050565b600060608201905081810360008301526122fb8186612271565b905061230a60208301856122b7565b61231760408301846122d2565b949350505050565b600073ffffffffffffffffffffffffffffffffffffffff82169050919050565b600061234a8261231f565b9050919050565b61235a8161233f565b811461236557600080fd5b50565b60008135905061237781612351565b92915050565b6000806040838503121561239457612393612092565b5b60006123a285828601612368565b925050602083013567ffffffffffffffff8111156123c3576123c2612097565b5b6123cf858286016121b4565b9150509250929050565b6000819050919050565b6123ec816123d9565b82525050565b600060208201905061240760008301846123e3565b92915050565b612416816122aa565b811461242157600080fd5b50565b6000813590506124338161240d565b92915050565b600080604083850312156124505761244f612092565b5b600083013567ffffffffffffffff81111561246e5761246d612097565b5b61247a858286016121b4565b925050602061248b85828601612424565b9150509250929050565b60006020820190506124aa60008301846122b7565b92915050565b6000602082840312156124c6576124c5612092565b5b60006124d484828501612368565b91505092915050565b60006040820190506124f260008301856122b7565b6124ff60208301846122d2565b9392505050565b61250f816123d9565b811461251a57600080fd5b50565b60008135905061252c81612506565b92915050565b60006020828403121561254857612547612092565b5b60006125568482850161251d565b91505092915050565b600060208201905081810360008301526125798184612271565b905092915050565b600081519050919050565b600082825260208201905092915050565b6000819050602082019050919050565b600082825260208201905092915050565b60006125c98261222b565b6125d381856125ad565b93506125e3818560208601612247565b6125ec816120a6565b840191505092915050565b600061260383836125be565b905092915050565b6000602082019050919050565b600061262382612581565b61262d818561258c565b93508360208202850161263f8561259d565b8060005b8581101561267b578484038952815161265c85826125f7565b94506126678361260b565b925060208a01995050600181019050612643565b50829750879550505050505092915050565b600060208201905081810360008301526126a78184612618565b905092915050565b600080604083850312156126c6576126c5612092565b5b600083013567ffffffffffffffff8111156126e4576126e3612097565b5b6126f0858286016121b4565b92505060206127018582860161251d565b9150509250929050565b6127148161233f565b82525050565b600060208201905061272f600083018461270b565b92915050565b60006020828403121561274b5761274a612092565b5b600061275984828501612424565b91505092915050565b6000819050919050565b600061278761278261277d8461231f565b612762565b61231f565b9050919050565b60006127998261276c565b9050919050565b60006127ab8261278e565b9050919050565b6127bb816127a0565b82525050565b60006020820190506127d660008301846127b2565b92915050565b7f4e487b7100000000000000000000000000000000000000000000000000000000600052602260045260246000fd5b6000600282049050600182168061282357607f821691505b602082108103612836576128356127dc565b5b50919050565b7f4e6f7420617574686f72697a6564000000000000000000000000000000000000600082015250565b6000612872600e83612236565b915061287d8261283c565b602082019050919050565b600060208201905081810360008301526128a181612865565b9050919050565b600081905092915050565b60006128be8261222b565b6128c881856128a8565b93506128d8818560208601612247565b80840191505092915050565b60006128f082846128b3565b915081905092915050565b7f415653206e6f7420666f756e6400000000000000000000000000000000000000600082015250565b6000612931600d83612236565b915061293c826128fb565b602082019050919050565b6000602082019050818103600083015261296081612924565b9050919050565b600060408201905081810360008301526129818185612271565b905061299060208301846122b7565b9392505050565b7f415653206e616d652063616e6e6f7420626520656d7074790000000000000000600082015250565b60006129cd601883612236565b91506129d882612997565b602082019050919050565b600060208201905081810360008301526129fc816129c0565b9050919050565b7f415653206e616d6520746f6f206c6f6e67000000000000000000000000000000600082015250565b6000612a39601183612236565b9150612a4482612a03565b602082019050919050565b60006020820190508181036000830152612a6881612a2c565b9050919050565b7f41565320616c7265616479206578697374730000000000000000000000000000600082015250565b6000612aa5601283612236565b9150612ab082612a6f565b602082019050919050565b60006020820190508181036000830152612ad481612a98565b9050919050565b7f496e76616c6964207269736b2073636f72650000000000000000000000000000600082015250565b6000612b11601283612236565b9150612b1c82612adb565b602082019050919050565b60006020820190508181036000830152612b4081612b04565b9050919050565b60008190508160005260206000209050919050565b60006020601f8301049050919050565b600082821b905092915050565b600060088302612ba97fffffffffffffffffffffffffffffffffffffffffffffffffffffffffffffffff82612b6c565b612bb38683612b6c565b95508019841693508086168417925050509392505050565b6000612be6612be1612bdc846123d9565b612762565b6123d9565b9050919050565b6000819050919050565b612c0083612bcb565b612c14612c0c82612bed565b848454612b79565b825550505050565b600090565b612c29612c1c565b612c34818484612bf7565b505050565b5b81811015612c5857612c4d600082612c21565b600181019050612c3a565b5050565b601f821115612c9d57612c6e81612b47565b612c7784612b5c565b81016020851015612c86578190505b612c9a612c9285612b5c565b830182612c39565b50505b505050565b600082821c905092915050565b6000612cc060001984600802612ca2565b1980831691505092915050565b6000612cd98383612caf565b9150826002028217905092915050565b612cf28261222b565b67ffffffffffffffff811115612d0b57612d0a6120b7565b5b612d15825461280b565b612d20828285612c5c565b600060209050601f831160018114612d535760008415612d41578287015190505b612d4b8582612ccd565b865550612db3565b601f198416612d6186612b47565b60005b82811015612d8957848901518255600182019150602085019450602081019050612d64565b86831015612da65784890151612da2601f891682612caf565b8355505b6001600288020188555050505b505050505050565b600069ffffffffffffffffffff82169050919050565b612dda81612dbb565b8114612de557600080fd5b50565b600081519050612df781612dd1565b92915050565b6000819050919050565b612e1081612dfd565b8114612e1b57600080fd5b50565b600081519050612e2d81612e07565b92915050565b600081519050612e4281612506565b92915050565b600080600080600060a08688031215612e6457612e63612092565b5b6000612e7288828901612de8565b9550506020612e8388828901612e1e565b9450506040612e9488828901612e33565b9350506060612ea588828901612e33565b9250506080612eb688828901612de8565b9150509295509295909350565b7f496e76616c6964207269736b2073636f72652066726f6d206f7261636c650000600082015250565b6000612ef9601e83612236565b9150612f0482612ec3565b602082019050919050565b60006020820190508181036000830152612f2881612eec565b9050919050565b7f4e487b7100000000000000000000000000000000000000000000000000000000600052601160045260246000fd5b6000612f69826123d9565b9150612f74836123d9565b9250828201905080821115612f8c57612f8b612f2f565b5b92915050565b7f4e487b7100000000000000000000000000000000000000000000000000000000600052603260045260246000fd5b6000608082019050612fd6600083018761270b565b8181036020830152612fe88186612271565b90508181036040830152612ffc8185612271565b905061300b60608301846123e3565b95945050505050565b7f496e76616c69642073636f726500000000000000000000000000000000000000600082015250565b600061304a600d83612236565b915061305582613014565b602082019050919050565b600060208201905081810360008301526130798161303d565b9050919050565b7f496e76616c6964207468726573686f6c64000000000000000000000000000000600082015250565b60006130b6601183612236565b91506130c182613080565b602082019050919050565b600060208201905081810360008301526130e5816130a9565b9050919050565b7f5269736b2073636f7265206d7573742062652067726561746572207468616e2060008201527f3000000000000000000000000000000000000000000000000000000000000000602082015250565b6000613148602183612236565b9150613153826130ec565b604082019050919050565b600060208201905081810360008301526131778161313b565b9050919050565b6000604082019050613193600083018561270b565b6131a060208301846122b7565b9392505050565b7f5573657220686173206e6f74206f7074656420696e746f206175746f2d72656260008201527f616c616e63696e67000000000000000000000000000000000000000000000000602082015250565b6000613203602883612236565b915061320e826131a7565b604082019050919050565b60006020820190508181036000830152613232816131f6565b905091905056fea264697066735822122078066fda1f529941ac26c466e58c1d140178ae14fd293f0396636050888a1c2f64736f6c634300081a0033",
  "linkReferences": {},
  "deployedLinkReferences": {}
}